:020000040800F2
:100000006006002049010008510100085301000862
:1000100000000000000000000000000000000000E0
:100020000000000000000000000000005501000872
:1000300000000000000000005701000859010008FE
:100040005B0100085B0100085B0100085B01000820
:100050005B0100085B0100085B0100085B01000810
:100060005B0100085B0100085B0100085B01000800
:100070005B0100085B0100085B0100085B010008F0
:100080005B0100085B0100085B0100085B010008E0
:100090005B0100085B0100085B0100085B010008D0
:1000A0005B0100085B0100085B0100085B010008C0
:1000B0005B0100085B0100085B0100085B010008B0
:1000C00000F002F800F030F80CA030C8083824180E
:1000D0002D18671EA246AB4654465D46AC4201D180
:1000E00000F022F87E460F3EB6460FCC0126334282
:1000F00000D0FB1A3343A246AB461847BC060000AB
:10010000CC0600000023002400250026103A01D36D
:1001100078C1FBD8520700D330C100D50B607047BF
:100120001FB51FBD10B510BD00F02DF81146FFF72B
:10013000F7FF00F06DF800F045F803B4FFF7F2FFA9
:1001400003BC00F04BF80000074880470748004711
:10015000FEE7FEE7FEE7FEE7FEE7FEE704480549A7
:10016000054A064B70470000EB010008C10000087B
:100170006000002060060020600200206002002075
:10018000704770477047754600F024F8AE4605008A
:1001900069465346C008C000854618B020B5FFF731
:1001A000DDFF60BCB64600260027C0C5C0C5C0C57F
:1001B000C0C5C0C5C0C5C0C5C0C5403D490849008F
:1001C0008D46704710B50446C046C0462046FFF72E
:1001D000B4FF10BD004870470000002001491820FE
:1001E000ABBEFEE7260002007047704782B0019068
:1001F00000200090FFE700980199884205D2FFE7B0
:10020000FFE70098401C0090F5E702B0704700003F
:1002100010B58EB000200D90BC48016801229304F7
:1002200019430160BA480168BA4B19430160BA49E1
:100230000B68BA4C23430B600168FF231B059943ED
:100240000160B7480168120211430160B5480C9083
:10025000FFE7B5480168032212031140090B0B9117
:10026000016889B2C90B0A9100680121890308401D
:10027000800B09900998012800D043E10A980128D1
:1002800000D0BAE0A94801680122114301600C992D
:100290000B9B9940089008460792FFF7A7FF089824
:1002A00001680222114301600C990B9A91400846A3
:1002B000FFF79CFF089801680422114301600C9924
:1002C0000B9A91400846FFF791FF08980168802239
:1002D000114301600C990B9A91400846FFF786FF85
:1002E000089801684022114301600C990B9A9140D3
:1002F0000846FFF77BFF0898016820221143016040
:100300000C990B9A91400846FFF770FF0898016816
:100310001022114301600C990B9A91400846FFF797
:1003200065FF089801680822114301600C990B9A37
:1003300091400846FFF75AFF08980168079A13048E
:10034000194301600C990B9B99400846FFF74EFF3B
:1003500008980168079A5304194301600C990B9B94
:1003600099400846FFF742FF08980168079A9304EE
:10037000194301600C990B9B99400846FFF736FF23
:1003800008980168079AD305194301600C990B9BE3
:1003900099400846FFF72AFF08980168079A9305D5
:1003A000194301600C990B9B99400846FFF71EFF0B
:1003B00008980168079A5305194301600C990B9B33
:1003C00099400846FFF712FF08980168079A13053D
:1003D000194301600C990B9B99400846FFF706FFF3
:1003E00008980168079AD304194301600C990B9B84
:1003F00099400846FFF7FAFE83E0EE4801680122C3
:10040000114301600C990B9B994006900846059298
:10041000FFF7ECFE06980168059A13041943016082
:1004200001680223194301600C990B9B994008460F
:10043000FFF7DCFE06980168059A53041943016032
:1004400001680423194301600C990B9B99400846ED
:10045000FFF7CCFE06980168059A930419430160E2
:1004600001688023194301600C990B9B9940084651
:10047000FFF7BCFE06980168059AD3051943016091
:1004800001684023194301600C990B9B9940084671
:10049000FFF7ACFE06980168059A930519430160C1
:1004A00001682023194301600C990B9B9940084671
:1004B000FFF79CFE06980168059A530519430160F1
:1004C00001681023194301600C990B9B9940084661
:1004D000FFF78CFE06980168059A13051943016021
:1004E00001680823194301600C990B9B9940084649
:1004F000FFF77CFE06980168059AD3041943016052
:10050000FFE755E10A98012812D0CDE0141002400F
:1005100000040048555501000804004855550000E6
:100520001404004850C30000100400481804004898
:10053000A04801680822114301600C990B9A914070
:1005400004900846FFF752FE0498016810221143F8
:1005500001600C990B9A91400846FFF747FE0498FA
:1005600001682022114301600C990B9B99400846B9
:100570000392FFF73BFE049801684022114301609B
:100580000C990B9A91400846FFF730FE04980168D9
:100590008022114301600C990B9A91400846FFF7A5
:1005A00025FE049801680422114301600C990B9AFE
:1005B00091400846FFF71AFE04980168039A114318
:1005C00001600C990B9B99400846FFF70FFE0498B9
:1005D00001680122114301600C990B9B9940084668
:1005E0000292FFF703FE04980168029AD3041943AC
:1005F00001600C990B9B99400846FFF7F7FD0498A2
:100600000168029A1305194301600C990B9B9940EC
:100610000846FFF7EBFD04980168029A5305194359
:1006200001600C990B9B99400846FFF7DFFD049889
:100630000168029A9305194301600C990B9B99403C
:100640000846FFF7D3FD04980168029AD3051943C1
:1006500001600C990B9B99400846FFF7C7FD049871
:100660000168029A9304194301600C990B9B99400D
:100670000846FFF7BBFD04980168029A530419432A
:1006800001600C990B9B99400846FFF7AFFD049859
:100690000168029A1304194301600C990B9B99405D
:1006A0000846FFF7A3FD82E0424801680822114393
:1006B00001600C990B9A914001900846FFF796FD56
:1006C000019801680122D3041943016001681023D5
:1006D000194301600C990B9B994008460092FFF763
:1006E00085FD01980168009A1305194301600168AE
:1006F0002023194301600C990B9B99400846FFF792
:1007000075FD01980168009A53051943016001685D
:100710004023194301600C990B9B99400846FFF751
:1007200065FD01980168009A93051943016001680D
:100730008023194301600C990B9B99400846FFF7F1
:1007400055FD01980168009AD305194301600168BD
:100750000423194301600C990B9B99400846FFF74D
:1007600045FD01980168009A9304194301600168EE
:100770000223194301600C990B9B99400846FFF72F
:1007800035FD01980168009A53041943016001681E
:10079000114301600C990B9B99400846FFF726FD19
:1007A00001980168009A130419430160FFE7FFE70D
:1007B0004FE5C04618040048C807000800000020A4
:0807C0006006000004010008BE
:0400000508000149A5
:00000001FF
