:020000040800F2
:10000000880600209D010008A5010008A70100083E
:1000100000000000000000000000000000000000E0
:10002000000000000000000000000000A90100081E
:100030000000000000000000AB010008AD01000856
:10004000AF010008AF010008AF010008AF010008D0
:10005000AF010008AF010008AF010008AF010008C0
:10006000AF010008AF010008AF010008AF010008B0
:10007000AF010008AF010008AF010008AF010008A0
:10008000AF010008AF010008AF010008AF01000890
:10009000AF010008AF010008AF010008AF01000880
:1000A000AF010008AF010008AF0100087D030008A0
:1000B000AF010008AF010008AF010008AF01000860
:1000C00000F002F800F03EF80CA030C80838241800
:1000D0002D18671EA246AB4654465D46AC4201D180
:1000E00000F030F87E460F3EB6460FCC0126334274
:1000F00000D0FB1A3343A246AB4618476406000003
:1001000084060000103A02D378C878C1FAD85207A2
:1001100001D330C830C101D504680C6070470000BD
:100120000023002400250026103A01D378C1FBD813
:10013000520700D330C100D50B6070471FB51FBDFB
:1001400010B510BD00F08AF81146FFF7F7FF00F078
:1001500099FA00F0A2F803B4FFF7F2FF03BC00F035
:10016000A9F8000070B505460C46164602E00FCC13
:100170000FC5103E102EFAD2082E02D303CC03C5B1
:10018000083E042E07D301CC01C5361F03E02178B9
:100190002970641C6D1C761EF9D270BD074880471B
:1001A00007480047FEE7FEE7FEE7FEE7FEE7FEE75B
:1001B00004480549054A064B7047000079030008CA
:1001C000C100000888000020880600208802002066
:1001D00088020020F8B5042A2CD3830712D00B78AC
:1001E000491C0370401C521E83070BD00B78491C1E
:1001F0000370401C521E830704D00B78491C037007
:10020000401C521E8B079B0F05D0C91ADF0020230C
:10021000DE1B08C90AE0FFF7A5FFF8BD1D4608C9A7
:10022000FD401C46B4402C4310C0121F042AF5D2D6
:10023000F308C91A521EF0D40B78491C0370401CF5
:10024000521EEAD40B78491C0370401C012AE4D4E6
:1002500009780170F8BD704770477047754600F027
:1002600025F8AE46050069465346C008C0008546DD
:1002700018B020B5FFF79CFF60BCB64600260027EB
:10028000C0C5C0C5C0C5C0C5C0C5C0C5C0C5C0C546
:10029000403D490849008D46704710B50446C046A8
:1002A000C0462046FFF757FF10BD000000487047CA
:1002B0001000002001491820ABBEFEE72600020016
:1002C00070470000B0B5224801680122930319432A
:1002D0000160204801685304194301600920C006E9
:1002E00001680523DB04194301601B4801681123E1
:1002F0001B011943016019480168530299430160C9
:100300001748016803239C04A143016015490D6847
:1003100025430D6001681B059943016001681305C1
:100320001943016010480168914301600F4945235A
:100330000B600C21016001686023194301600C49C6
:1003400000230B600B490B60016811430160B0BDD5
:100350001810024014100240240000480400004815
:100360000C00004808000048003801400C380140EB
:1003700004380140083801407047000010B5A2B0B1
:1003800000202190AC4918A824220992FFF722FFEF
:10039000AA490FAA08901046099AFFF71BFFA8491F
:1003A00009688906002900D439E1A6480088A649D1
:1003B00008700878012100222F280B46079006912B
:1003C0000592049301DC05980490049807993A2952
:1003D000069A0390029201DB059802900298039915
:1003E00001409A4800680140C7480068401C07283F
:1003F00006980191009001D305980090009801990A
:10040000014218D0FFE790480078BF490978904A28
:100410005054FFE78A4800680006002801D4FFE72F
:10042000F8E7B94801788A4A515C8A4A1180016824
:10043000491C0160FFE7844800780D2800D0CDE01A
:1004400082480068002857D0FFE78148007830389C
:1004500021900EA801210170FFE70EA80078AA499B
:100460000968884210D2FFE721980A2141430EA86B
:100470000078774A105C401830382190FFE70E98DA
:10048000401C0EA90870E8E72198A14908606F4850
:1004900000210160FFE76A4800680006002801D4D7
:1004A000FFE7F8E76B480D210180FFE7644800682B
:1004B0000006002801D4FFE7F8E766480A2101801A
:1004C0000DA800210170FFE70DA8007805280FDCBA
:1004D000FFE70DA801785E4A535C5F4C63540078D7
:1004E00000211154FFE70D98401C0DA90870EBE79F
:1004F00085480021016070E05448012101600CA88A
:1005000000210170FFE70CA80078232814DCFFE726
:10051000FFE74B4800680006002801D4FFE7F8E732
:100520000CA8007818A9085C4A490880FFE70C98D5
:10053000401C0CA90870E6E70BA800210170FFE73A
:100540000BA80078052814DCFFE7FFE73C480068AB
:100550000006002801D4FFE7F8E70BA800783E4921
:10056000085C3C490880FFE70B98401C0BA9087009
:10057000E6E7FFE7324800680006002801D4FFE7FD
:10058000F8E734480D210180FFE72D480068000698
:10059000002801D4FFE7F8E72E480A2101800AA8C5
:1005A00000210170FFE70AA80078232814DCFFE788
:1005B000FFE7234800680006002801D4FFE7F8E7BA
:1005C0000AA800780FA9085C22490880FFE70A986A
:1005D000401C0AA90870E6E7FFE7FFE71A48007821
:1005E0007F3841424841484909684A1E91410842C2
:1005F00014D0FFE7444801684A1E0260C8B214499B
:1006000000220A54FFE70E4800680006002801D4C3
:10061000FFE7F8E70F487F210180FFE7FFE7084881
:1006200000684006002804D5FFE70C48402101601F
:10063000FFE722B010BDC0463C07000818070008BD
:100640001C38014024380140800000207800002040
:1006500070000020283801400000002020380140B0
:1006600082B0019000200090FFE700980199884235
:1006700005D2FFE7FFE70098401C0090F5E702B0C5
:100680007047000010B586B000200490EFF3108191
:1006900072B6059118490A6801239C0422430A6036
:1006A00016490A68164C22430A6016490A681C0259
:1006B00022430A60144908600293FFF703FE1348BF
:1006C0000168029AD3061943016062B6FFE7104839
:1006D000006803900F4801210160039A01901046C1
:1006E0000091FFF7BDFF00980104019A1160039883
:1006F000FFF7B6FFEBE7C0461410024000040048C5
:1007000005000100140400487C00002000E100E026
:100710000800002018040048D09DD0BED0B2D0BE42
:10072000D0B520D0B7D0BDD0B0D187D0B5D0BDD056
:10073000B8D0B52C20D0BCD0BAD1813AD0BFD0B57A
:10074000D180D0B8D0BED0B420D0BCD0B8D0B3D037
:10075000B0D0BDD0B8D18F2C20D0BCD0BAD1813A86
:1007600080070008000000200C00000004010008C1
:100770008C07000810000020780600002001000807
:0C078000353030303000000050C3000065
:040000050800019D51
:00000001FF
