:020000040800F2
:100000006006002049010008510100085301000862
:1000100000000000000000000000000000000000E0
:100020000000000000000000000000005501000872
:1000300000000000000000005701000859010008FE
:100040005B0100085B0100085B0100085B01000820
:100050005B0100085B0100085B0100085B01000810
:100060005B0100085B0100085B0100085B01000800
:100070005B0100085B0100085B0100085B010008F0
:100080005B0100085B0100085B0100085B010008E0
:100090005B0100085B0100085B0100085B010008D0
:1000A0005B0100085B0100085B0100085B010008C0
:1000B0005B0100085B0100085B0100085B010008B0
:1000C00000F002F800F030F80CA030C8083824180E
:1000D0002D18671EA246AB4654465D46AC4201D180
:1000E00000F022F87E460F3EB6460FCC0126334282
:1000F00000D0FB1A3343A246AB461847EC01000080
:10010000FC0100000023002400250026103A01D342
:1001100078C1FBD8520700D330C100D50B607047BF
:100120001FB51FBD10B510BD00F02DF81146FFF72B
:10013000F7FF00F0B3F800F045F803B4FFF7F2FF63
:1001400003BC00F04BF80000074880470748004711
:10015000FEE7FEE7FEE7FEE7FEE7FEE704480549A7
:10016000054A064B7047000099020008C1000008CC
:100170006000002060060020600200206002002075
:10018000704770477047754600F024F8AE4605008A
:1001900069465346C008C000854618B020B5FFF731
:1001A000DDFF60BCB64600260027C0C5C0C5C0C57F
:1001B000C0C5C0C5C0C5C0C5C0C5403D490849008F
:1001C0008D46704710B50446C046C0462046FFF72E
:1001D000B4FF10BD004870470000002001491820FE
:1001E000ABBEFEE72600020070470000B0B5204815
:1001F000016801229303194301601E4801685304FA
:10020000194301600920C00601680523DB04194376
:1002100001601948016811231B0119430160174847
:1002200001685302994301601548016803239C0447
:10023000A143016013490D6825430D6001681B054A
:100240009943016001681305194301600E48016874
:10025000914301600D4945230B600C2101600C495D
:1002600000230B600B490B60016811430160B0BDB6
:1002700018100240141002402400004804000048F6
:100280000C00004808000048003801400C380140CC
:1002900004380140083801407047000080B582B042
:1002A00000200190FFF7A2FFFFE7FFE70B4800687F
:1002B0008006002801D4FFE7F8E70948008869466E
:1002C0000870FFE7054800680006002801D4FFE732
:1002D000F8E76846007803490880E6E71C380140E3
:1002E0002438014028380140F802000800000020AE
:0802F000600600000401000893
:0400000508000149A5
:00000001FF
