:020000040800F2
:100000006006002081010008890100088B010008BA
:1000100000000000000000000000000000000000E0
:100020000000000000000000000000008D0100083A
:1000300000000000000000008F010008910100088E
:100040009301000893010008930100089301000840
:100050009301000893010008930100089301000830
:100060009301000893010008930100089301000820
:100070009301000893010008930100089301000810
:100080009301000893010008930100089301000800
:1000900093010008930100089301000893010008F0
:1000A00093010008930100089301000893010008E0
:1000B00093010008930100089301000893010008D0
:1000C00000F002F800F030F80CA030C8083824180E
:1000D0002D18671EA246AB4654465D46AC4201D180
:1000E00000F022F87E460F3EB6460FCC0126334282
:1000F00000D0FB1A3343A246AB4618470005000068
:10010000100500000023002400250026103A01D32A
:1001100078C1FBD8520700D330C100D50B607047BF
:100120001FB51FBD10B510BD00F041F91146FFF716
:10013000F7FF00F0C7F900F059F903B4FFF7F2FF39
:1001400003BC00F05FF9000070B505460C4616468A
:1001500002E00FCC0FC5103E102EFAD2082E02D3AB
:1001600003CC03C5083E042E07D301CC01C5361FBE
:1001700003E021782970641C6D1C761EF9D270BDD5
:100180000748804707480047FEE7FEE7FEE7FEE72F
:10019000FEE7FEE704480549054A064B70470000A4
:1001A000C1040008C10000086000002060060020B3
:1001B0006002002060020020F8B5042A2CD38307D7
:1001C00012D00B78491C0370401C521E83070BD0C1
:1001D0000B78491C0370401C521E830704D00B7817
:1001E000491C0370401C521E8B079B0F05D0C91A77
:1001F000DF002023DE1B08C90AE0FFF7A5FFF8BDDA
:100200001D4608C9FD401C46B4402C4310C0121FB7
:10021000042AF5D2F308C91A521EF0D40B78491CEF
:100220000370401C521EEAD40B78491C0370401C1A
:10023000012AE4D409780170F8BD00000022030906
:100240008B422CD3030A8B4211D300239C464EE0F1
:1002500003460B433CD4002243088B4231D30309AD
:100260008B421CD3030A8B4201D394463FE0C3095F
:100270008B4201D3CB01C01A524183098B4201D377
:100280008B01C01A524143098B4201D34B01C01A62
:10029000524103098B4201D30B01C01A5241C308DA
:1002A0008B4201D3CB00C01A524183088B4201D349
:1002B0008B00C01A524143088B4201D34B00C01A35
:1002C0005241411A00D201465241104670475DE04A
:1002D000CA0F00D04942031000D3404253409C460D
:1002E000002203098B422DD3030A8B4212D38901CA
:1002F000FC2212BA030A8B420CD3890192118B4261
:1003000008D3890192118B4204D389013AD092110A
:1003100000E08909C3098B4201D3CB01C01A5241C5
:1003200083098B4201D38B01C01A524143098B428E
:1003300001D34B01C01A524103098B4201D30B0177
:10034000C01A5241C3088B4201D3CB00C01A52419C
:1003500083088B4201D38B00C01A5241D9D2430883
:100360008B4201D34B00C01A5241411A00D20146C0
:100370005241104663465B1001D34042002B00D52A
:100380004942704763465B1000D3404201B50549BE
:10039000002802DC491C084000E00846C046C04670
:1003A00002BD00BFFFFFFF7F704770477047754673
:1003B00000F024F8AE46050069465346C008C00068
:1003C000854618B020B5FFF7E5FE60BCB6460026AE
:1003D0000027C0C5C0C5C0C5C0C5C0C5C0C5C0C553
:1003E000C0C5403D490849008D46704710B50446D8
:1003F000C046C0462046FFF7A0FE10BD004870472B
:100400000000002001491820ABBEFEE726000200D4
:100410007047000070B5204801680122930319431A
:1004200001601E4801685304194301600920C00699
:1004300001680523DB041943016019480168112391
:100440001C0121430160174801685402A143016067
:10045000154801680324A504A943016013490E68E7
:100460002E430E6001682505A9430160016815054A
:10047000294301600E480168914301600D490B60FA
:100480000C21016021030C4B19600C4900230B6007
:1004900001681143016070BD181002401410024041
:1004A00024000048040000480C00004808000048F0
:1004B000003801400C380140043801400838014040
:1004C0007047000080B58EB000200D900CA806216A
:1004D0000180FFF79FFFFFE73F4907A81222FFF7C0
:1004E0006BFEFFE73D4800688006002801D4FFE767
:1004F000F8E73B48008806A9087000200590FFE750
:100500000598082810DCFFE7FFE73448006800067C
:10051000002801D4FFE7F8E732487F210180FFE798
:100520000598401C0590EBE704A800210180FFE737
:1005300006A80078002821D0FFE706A80178072246
:100540000290084611460192FFF778FE30221143CF
:1005500004AA128808239A1A520007AB99520299EA
:100560000A78009010460199FFF768FE029908701A
:10057000FFE70498401C04A90880D9E70CA80621CD
:10058000018000200390FFE70398082822DCFFE7A2
:1005900003980CA90988884209D1FFE703983028FD
:1005A00005D1FFE70C98401C0CA908800EE0FFE77E
:1005B0000A4800680006002801D4FFE7F8E703981E
:1005C000400007A9085A07490880FFE70398401C24
:1005D0000390D9E780E7C046E80500081C380140D1
:1005E00024380140283801407400690076002D004D
:1005F00037003E0000000000000000000C0600086C
:0C0600000000002060060000040100085B
:04000005080001816D
:00000001FF
