:020000040800F2
:1000000070060020650100086D0100086F010008FE
:1000100000000000000000000000000000000000E0
:100020000000000000000000000000007101000856
:1000300000000000000000007301000875010008C6
:1000400077010008770100087701000877010008B0
:1000500077010008770100087701000877010008A0
:100060007701000877010008770100087701000890
:100070007701000877010008770100087701000880
:100080007701000877010008770100087701000870
:100090007701000877010008770100087701000860
:1000A000770100087701000877010008290400089B
:1000B0007701000877010008770100087701000840
:1000C00000F002F800F03EF80CA030C80838241800
:1000D0002D18671EA246AB4654465D46AC4201D180
:1000E00000F030F87E460F3EB6460FCC0126334274
:1000F00000D0FB1A3343A246AB4618474406000023
:1001000064060000103A02D378C878C1FAD85207C2
:1001100001D330C830C101D504680C6070470000BD
:100120000023002400250026103A01D378C1FBD813
:10013000520700D330C100D50B6070471FB51FBDFB
:1001400010B510BD00F0E3F81146FFF7F7FF00F01F
:100150002DFA00F0FBF803B4FFF7F2FF03BC00F048
:1001600001F900000748804707480047FEE7FEE71F
:10017000FEE7FEE7FEE7FEE704480549054A064BB1
:100180007047000025040008C1000008700000202E
:100190007006002070020020700200200022030977
:1001A0008B422CD3030A8B4211D300239C464EE092
:1001B00003460B433CD4002243088B4231D303094E
:1001C0008B421CD3030A8B4201D394463FE0C30900
:1001D0008B4201D3CB01C01A524183098B4201D318
:1001E0008B01C01A524143098B4201D34B01C01A03
:1001F000524103098B4201D30B01C01A5241C3087B
:100200008B4201D3CB00C01A524183088B4201D3E9
:100210008B00C01A524143088B4201D34B00C01AD5
:100220005241411A00D201465241104670475DE0EA
:10023000CA0F00D04942031000D3404253409C46AD
:10024000002203098B422DD3030A8B4212D389016A
:10025000FC2212BA030A8B420CD3890192118B4201
:1002600008D3890192118B4204D389013AD09211AB
:1002700000E08909C3098B4201D3CB01C01A524166
:1002800083098B4201D38B01C01A524143098B422F
:1002900001D34B01C01A524103098B4201D30B0118
:1002A000C01A5241C3088B4201D3CB00C01A52413D
:1002B00083088B4201D38B00C01A5241D9D2430824
:1002C0008B4201D34B00C01A5241411A00D2014661
:1002D0005241104663465B1001D34042002B00D5CB
:1002E0004942704763465B1000D3404201B505495F
:1002F000002802DC491C084000E00846C046C04611
:1003000002BD00BFFFFFFF7F704770477047754613
:1003100000F024F8AE46050069465346C008C00008
:10032000854618B020B5FFF727FF60BCB64600260B
:100330000027C0C5C0C5C0C5C0C5C0C5C0C5C0C5F3
:10034000C0C5403D490849008D46704710B5044678
:10035000C046C0462046FFF7FEFE10BD004870476D
:100360000800002001491820ABBEFEE7260002006D
:1003700070470000B0B52248016801229303194379
:100380000160B04801685304194301600920C006A8
:1003900001680523DB04194301601A480168112331
:1003A0001B01194301601848016853029943016019
:1003B0001648016803239C04A143016014490D6899
:1003C00025430D6001681B05994301600168130511
:1003D000194301600F480168914301600E494523AC
:1003E0000B600C21016001686023194301600B4917
:1003F00000230B600A490B60016811430160B0BD26
:100400001810024024000048040000480C00004876
:1004100008000048003801400C3801400438014011
:10042000083801407047000080B582B0C2480068BB
:100430008006002838D5FFE72248008801A9087007
:100440000878692801D1FFE7FFE701A8007865284F
:1004500006D1FFE754480178102211430170FFE7ED
:1004600001A80078732806D1FFE74F4801780122E0
:1004700011430170FFE701A80078662805D1FFE766
:100480000020002801D1FFE70DE001A800786628D0
:1004900008D1FFE70020012804D1FFE742480021EE
:1004A0000170FFE7FFE7FFE7A34800684006002868
:1004B00004D5FFE7044840210160FFE700F006F89B
:1004C00002B080BD243801402038014080B584B09E
:1004D00003A83349018002A83D2181703149018080
:1004E000FFE70020012858D1FFE70020012843D171
:1004F000FFE701A800210170FFE701A800780128AB
:1005000014DCFFE7FFE78C4800680006002801D4F0
:10051000FFE7F8E701A8007803A9085C874908808D
:10052000FFE70198401C01A90870E6E74D48006804
:1005300000F09AF8684600210170FFE768460078ED
:10054000012814DCFFE7FFE77B480068000600286D
:1005500001D4FFE7F8E76846007802A9085C77490C
:100560000880FFE70098401C69460870E6E73A48B3
:10057000007800F079F8FFE70B4800781021084078
:100580004008012801D1FFE7FFE707480078C007CE
:10059000002801D0FFE7FFE7A3E704B080BDC04615
:1005A000613D00002C6E000068000020B0B584B0F2
:1005B00000200290EFF3108072B6039001A8FB2197
:1005C00001702048016801229304194301601E480C
:1005D00001681E4B194301601D480168130219434D
:1005E00001600092FFF7C6FE1A480168009AD30620
:1005F0001943016062B618480270FFE71648007898
:1006000025281BDBFFE71548016801221143016023
:1006100013490B68134C25685D430D60216801ABDD
:100620001B785BB24B4323600168120411430160E5
:10063000FFE709480178491C0170DFE7029804B020
:10064000B0BDC046141002400004004855550100DA
:100650001404004800E100E069000020180400488C
:10066000040000200000002080B58EB00D900CA882
:10067000002101700D9800280FD5FFE7FFE72E48F5
:1006800000680006002801D4FFE7F8E72B482D2179
:1006900001800D9840420D90FFE703A81D210170D5
:1006A000FFE70D98002818D0FFE70D980A21019167
:1006B000FFF774FD3022114303AA127804AB99545A
:1006C0000D99009008460199FFF772FD0D90FFE724
:1006D0000398401E03A90870E3E702A800210170F7
:1006E000FFE702A800781D2824DCFFE702A80078B5
:1006F00004A9085C302805D1FFE70CA80078002881
:1007000012D1FFE70CA801210170FFE70A48006839
:100710000006002801D4FFE7F8E702A8007804A942
:10072000085C06490880FFE7FFE70298401C02A921
:100730000870D6E70EB080BD1C3801402838014053
:100740006007000800000020080000000401000805
:100750006807000808000020680600002001000863
:08076000080000000100000088
:040000050800016589
:00000001FF
