:020000040800F2
:10000000800A0020650100086D0100086F010008EA
:1000100000000000000000000000000000000000E0
:100020000000000000000000000000007101000856
:1000300000000000000000007301000875010008C6
:1000400077010008770100087701000877010008B0
:1000500077010008770100087701000877010008A0
:100060007701000877010008770100087701000890
:100070007701000877010008770100087701000880
:100080007701000877010008770100087701000870
:100090007701000877010008770100087701000860
:1000A000770100087701000877010008A90400081B
:1000B0007701000877010008770100087701000840
:1000C00000F002F800F03EF80CA030C80838241800
:1000D0002D18671EA246AB4654465D46AC4201D180
:1000E00000F030F87E460F3EB6460FCC0126334274
:1000F00000D0FB1A3343A246AB4618474409000020
:1001000064090000103A02D378C878C1FAD85207BF
:1001100001D330C830C101D504680C6070470000BD
:100120000023002400250026103A01D378C1FBD813
:10013000520700D330C100D50B6070471FB51FBDFB
:1001400010B510BD00F020F91146FFF7F7FF00F0E1
:10015000A7FB00F038F903B4FFF7F2FF03BC00F08F
:100160003FF900000748804707480047FEE7FEE7E1
:10017000FEE7FEE7FEE7FEE704480549054A064BB1
:1001800070470000A5040008C1000008800400209A
:10019000800A00208006002080060020434351434F
:1001A00030B55C18010C130C0D4692B25D4380B261
:1001B00051432C19054655430A0C09044D19624157
:1001C0005843010C00044019514130BD70B505463B
:1001D00010460C4618430ED000210846891A984153
:1001E00027DA00210846491BA04118DA2846214693
:1001F00000F042F870BD002C03DA01230022DB0777
:1002000007E000210846491BA04102DA0022D24340
:10021000530810461946C046C0462A4627E000212A
:100220006842A14100F028F8002440428C41214658
:100230001AE000210846491BA0410CDA21460020A3
:10024000524298410346284600F016F800244042E6
:100250008C41214670BD0020524298410021034646
:100260006842A14100F008F8002452429C41234614
:1002700070BD704770477047FEB5044610460D4686
:10028000184373D0A6468C460020A41A01469D410F
:1002900067D36646002701243D46B61A9D4102D326
:1002A00013463A462124654676462F04360C3E43D3
:1002B0002D0CB61A9D4104D3150C1B042B431204BC
:1002C0001034654676462F06360A3E432D0AB61A86
:1002D0009D4104D3150E1B022B43120208346546C0
:1002E00076462F0736093E432D09B61A9D4104D3A1
:1002F000150F1B012B431201241D65467646AF07DF
:10030000B6083E43AD08B61A9D4104D3950F9B0035
:100310002B439200A41C65467646EF0776083E43C1
:100320006D08B61A9D411AD392185B41641C16E001
:100330000018764665464941B71A9D4101910090E3
:1003400009D36046B11A98418E46844600980199B7
:100350000025401C6941DD0752082A435B08641EE2
:10036000E6D57246634603B0F0BDFFE7204628435A
:1003700007D00020C0430146C046C04622462B4657
:10038000F1E700200146F7E7754600F025F8AE4694
:10039000050069465346C008C000854618B020B520
:1003A000FFF7EAFE60BCB64600260027C0C5C0C500
:1003B000C0C5C0C5C0C5C0C5C0C5C0C5403D490851
:1003C00049008D46704710B50446C046C0462046D9
:1003D000FFF7C1FE10BD0000004870471800002064
:1003E00001491820ABBEFEE726000200704700005E
:1003F000B0B52248016801229303194301602048E7
:1004000001685304194301600920C00601680523EF
:10041000DB04194301601B48016811231B011943C8
:100420000160194801685302994301601748016847
:1004300003239C04A143016015490D6825430D6009
:1004400001681B05994301600168130519430160A8
:1004500010480168914301600F4945230B600C214E
:10046000016001686023194301600C4900230B609F
:100470000B490B60016811430160B0BD18100240C8
:100480001410024024000048040000480C000048FA
:1004900008000048003801400C3801400438014091
:1004A000083801407047000082B0F24800688006BA
:1004B00000285AD5FFE73348008801A9087008785A
:1004C0001B2800902ED0FFE70098312836D0FFE798
:1004D0000098352838D0FFE700985B2828D0FFE740
:1004E0000098652812D0FFE70098692808D0FFE738
:1004F0000098732810D0FFE700987E282AD02FE0BC
:10050000DB4801780422114301702DE0D8480178BE
:1005100002221143017027E0D548017801221143DE
:10052000017021E0D24801780822114301701BE0DC
:10053000CF48017810221143017015E0CC480178B2
:100540002022114301700FE0C94801784022114375
:10055000017009E0C648017880221143017003E070
:10056000C34800210170FFE7FFE7C248006840066A
:10057000002804D5FFE7044840210160FFE702B0EE
:100580007047C046243801402038014010B58CB077
:100590000BA8B34901800AA83D218170B14A0280AD
:1005A00009A835228270B04A028008A88170AF493C
:1005B0000180FFE7AE480078C0081F2800D04CE15A
:1005C000AB480078042108408008012860D1FFE78B
:1005D00007A800210170FFE707A80078012814DCB4
:1005E000FFE7FFE7A34800680006002801D4FFE703
:1005F000F8E707A800780BA9085C9F490880FFE787
:100600000798401C07A90870E6E7CB4841680068D6
:1006100000F098F906A800210170FFE706A800780D
:10062000012814DCFFE7FFE7924800680006002875
:1006300001D4FFE7F8E706A800780AA9085C8E490C
:100640000880FFE70698401C06A90870E6E7B9484D
:100650000078002100F076F9FFE7F6480068000610
:10066000002801D4FFE7F8E7F3480D210180FFE7F8
:10067000F04800680006002801D4FFE7F8E7EE48DC
:100680000A2101807A480178FB2211400170FFE7BE
:1006900077480078022108404008012876D1FFE71A
:1006A00005A800210170FFE705A80078012814DCE7
:1006B000FFE7FFE7DF4800680006002801D4FFE7F6
:1006C000F8E705A800780BA9085CDB490880FFE77C
:1006D0000598401C05A90870E6E79748416800683E
:1006E00000F030F9FFE7D34800680006002801D485
:1006F000FFE7F8E7D0483D2101808F480168406856
:100700000422D2430023DC43019008460199009360
:100710002346FFF75BFD00F015F904A8009901706E
:10072000FFE704A80078022814DCFFE7FFE7C148D0
:1007300000680006002801D4FFE7F8E704A8007865
:1007400009A9085CBC490880FFE70498401C04A97B
:100750000870E6E7FFE7B74800680006002801D404
:10076000FFE7F8E7B4480D210180FFE7B1480068D2
:100770000006002801D4FFE7F8E7AF480A2101800E
:100780003B480178FD2211400170FFE738480078AE
:10079000C007002860D0FFE703A800210170FFE731
:1007A00003A80078012814DCFFE7FFE7A1480068F0
:1007B0000006002801D4FFE7F8E703A800780BA99A
:1007C000085C9D490880FFE70398401C03A9087056
:1007D000E6E759484168006800F0B4F802A8002133
:1007E0000170FFE702A80078012814DCFFE7FFE7AB
:1007F000904800680006002801D4FFE7F8E702A847
:10080000007808A9085C8C490880FFE70298401C22
:1008100002A90870E6E749484168006800F092F8CC
:10082000FFE7844800680006002801D4FFE7F8E7E6
:1008300081480D210180FFE77E48006800060028FE
:1008400001D4FFE7F8E77C480A21018008480178D5
:10085000FE2211400170FFE7ACE60CB010BDC046AF
:10086000613D00002C6E00002A2D00002C7300005A
:10087000780000201C3801402838014082B00190E7
:1008800000200090FFE700980199884205D2FFE719
:10089000FFE70098401C0090F5E702B070470000A9
:1008A000B0B586B000200490EFF3108072B60590CA
:1008B00003A8FB210170FFF79BFD1D480168012281
:1008C000D2061143016062B6FFE71A480078232878
:1008D0002ADCFFE718480168426803AB1B785BB26B
:1008E000DC170290084611461A462346FFF756FCCD
:1008F000029A516010601148016843681268029CB6
:1009000065680190084619462B46FFF747FC019A97
:100910005160106007480178491C01700848FFF7D2
:10092000ADFFFFF733FED0E7049806B0B0BDC04678
:1009300000E100E00800002000000020100000207E
:1009400020A1070010B58AB00A4603460991089015
:100950003748007807A9087006A800210170099897
:10096000002813D5FFE7FFE732480068000600289B
:1009700001D4FFE7F8E730482D2101800998089954
:1009800000224942824108910992FFE7FFE7099856
:1009900008990143002920D0FFE7089809990A2205
:1009A000002304920393FFF711FC3032204B1B7895
:1009B0009B00224CE250089A099B0290104601913C
:1009C0001946049A039BFFF701FC09910890FFE781
:1009D00017480178491C0170D9E705A8002101706A
:1009E000FFE71348007807A90978401A05A9097894
:1009F00088421BDBFFE706A801210170FFE70D48D5
:100A000000680006002801D4FFE7F8E708480078EE
:100A100005A90978401A80000849085C0649088041
:100A2000FFE70598401C05A90870DAE70AB010BD79
:100A3000790000201C380140283801407C0000204B
:100A4000600A0008000000201800000004010008EF
:100A5000780A000818000020680A00002001000839
:100A6000080000000000000001000000000000007D
:080A7000080000000000000076
:040000050800016589
:00000001FF
