:020000040800F2
:10000000800A0020650100086D0100086F010008EA
:1000100000000000000000000000000000000000E0
:100020000000000000000000000000007101000856
:1000300000000000000000007301000875010008C6
:1000400077010008770100087701000877010008B0
:1000500077010008770100087701000877010008A0
:100060007701000877010008770100087701000890
:100070007701000877010008770100087701000880
:100080007701000877010008770100087701000870
:100090007701000877010008770100087701000860
:1000A000770100087701000877010008A90400081B
:1000B0007701000877010008770100087701000840
:1000C00000F002F800F03EF80CA030C80838241800
:1000D0002D18671EA246AB4654465D46AC4201D180
:1000E00000F030F87E460F3EB6460FCC0126334274
:1000F00000D0FB1A3343A246AB46184780080000E5
:10010000A0080000103A02D378C878C1FAD8520784
:1001100001D330C830C101D504680C6070470000BD
:100120000023002400250026103A01D378C1FBD813
:10013000520700D330C100D50B6070471FB51FBDFB
:1001400010B510BD00F020F91146FFF7F7FF00F0E1
:100150004BFB00F038F903B4FFF7F2FF03BC00F0EB
:100160003FF900000748804707480047FEE7FEE7E1
:10017000FEE7FEE7FEE7FEE704480549054A064BB1
:1001800070470000A5040008C1000008800400209A
:10019000800A00208006002080060020434351434F
:1001A00030B55C18010C130C0D4692B25D4380B261
:1001B00051432C19054655430A0C09044D19624157
:1001C0005843010C00044019514130BD70B505463B
:1001D00010460C4618430ED000210846891A984153
:1001E00027DA00210846491BA04118DA2846214693
:1001F00000F042F870BD002C03DA01230022DB0777
:1002000007E000210846491BA04102DA0022D24340
:10021000530810461946C046C0462A4627E000212A
:100220006842A14100F028F8002440428C41214658
:100230001AE000210846491BA0410CDA21460020A3
:10024000524298410346284600F016F800244042E6
:100250008C41214670BD0020524298410021034646
:100260006842A14100F008F8002452429C41234614
:1002700070BD704770477047FEB5044610460D4686
:10028000184373D0A6468C460020A41A01469D410F
:1002900067D36646002701243D46B61A9D4102D326
:1002A00013463A462124654676462F04360C3E43D3
:1002B0002D0CB61A9D4104D3150C1B042B431204BC
:1002C0001034654676462F06360A3E432D0AB61A86
:1002D0009D4104D3150E1B022B43120208346546C0
:1002E00076462F0736093E432D09B61A9D4104D3A1
:1002F000150F1B012B431201241D65467646AF07DF
:10030000B6083E43AD08B61A9D4104D3950F9B0035
:100310002B439200A41C65467646EF0776083E43C1
:100320006D08B61A9D411AD392185B41641C16E001
:100330000018764665464941B71A9D4101910090E3
:1003400009D36046B11A98418E46844600980199B7
:100350000025401C6941DD0752082A435B08641EE2
:10036000E6D57246634603B0F0BDFFE7204628435A
:1003700007D00020C0430146C046C04622462B4657
:10038000F1E700200146F7E7754600F025F8AE4694
:10039000050069465346C008C000854618B020B520
:1003A000FFF7EAFE60BCB64600260027C0C5C0C500
:1003B000C0C5C0C5C0C5C0C5C0C5C0C5403D490851
:1003C00049008D46704710B50446C046C0462046D9
:1003D000FFF7C1FE10BD0000004870471800002064
:1003E00001491820ABBEFEE726000200704700005E
:1003F000B0B52248016801229303194301602048E7
:1004000001685304194301600920C00601680523EF
:10041000DB04194301601B48016811231B011943C8
:100420000160194801685302994301601748016847
:1004300003239C04A143016015490D6825430D6009
:1004400001681B05994301600168130519430160A8
:1004500010480168914301600F4945230B600C214E
:10046000016001686023194301600C4900230B609F
:100470000B490B60016811430160B0BD18100240C8
:100480001410024024000048040000480C000048FA
:1004900008000048003801400C3801400438014091
:1004A000083801407047000082B0CE4800688006DE
:1004B000002856D5FFE73148008801A90870087860
:1004C0001B2800902ED0FFE70098312836D0FFE798
:1004D0000098352838D0FFE700985B2828D0FFE740
:1004E0000098652812D0FFE70098692808D0FFE738
:1004F0000098732810D0FFE700987E282AD02FE0BC
:10050000B748017804221143017029E0B44801780A
:1005100002221143017023E0B14801780122114306
:1005200001701DE0AE48017808221143017017E008
:10053000AB48017810221143017011E0A8480178FE
:100540002022114301700BE0A5480178402211439D
:10055000017005E0A2480178802211430170FFE795
:10056000FFE7A04800684006002804D5FFE70448DC
:1005700040210160FFE702B07047C04624380140C7
:100580002038014010B58AB009A89149018008A817
:100590009049018007A8352181708F49018006A804
:1005A0008E490180FFE78E480078C0081F2804D1DB
:1005B000FFE78B480021017008E189480078042199
:1005C0000840800801283ED1FFE705A800210170FE
:1005D000FFE705A80078012814DCFFE7FFE7E448FF
:1005E00000680006002801D4FFE7F8E705A80078B6
:1005F00008A9085CDF490880FFE70598401C05A9A9
:100600000870E6E79B480078002100F039F9FFE721
:10061000D74800680006002801D4FFE7F8E7D5486E
:100620000D210180FFE7D24800680006002801D4B0
:10063000FFE7F8E7CF480A21018069480178FB22EB
:1006400011400170FFE76648007802210840400829
:10065000012876D1FFE704A800210170FFE704A874
:100660000078022814DCFFE7FFE7C14800680006B5
:10067000002801D4FFE7F8E704A8007809A9085C7E
:10068000BC490880FFE70498401C04A90870E6E70D
:1006900079484168006800F0F3F8FFE7B448006863
:1006A0000006002801D4FFE7F8E7B2483D210180A9
:1006B0007148016840680422D2430023DC43019062
:1006C0000846019900932346FFF780FD00F0D8F813
:1006D00003A800990170FFE703A80078022814DC42
:1006E000FFE7FFE7A24800680006002801D4FFE703
:1006F000F8E703A8007807A9085C9E490880FFE78F
:100700000398401C03A90870E6E7FFE798480068D3
:100710000006002801D4FFE7F8E796480D21018084
:10072000FFE7934800680006002801D4FFE7F8E7D8
:1007300090480A2101802A480178FD221140017069
:10074000FFE727480078C00700283ED0FFE702A84F
:1007500000210170FFE702A80078012814DCFFE700
:10076000FFE7834800680006002801D4FFE7F8E7A8
:1007700002A8007806A9085C7E490880FFE7029875
:10078000401C02A90870E6E73C484168006800F098
:1007900077F8FFE7764800680006002801D4FFE7F5
:1007A000F8E774480D210180FFE7714800680006F2
:1007B000002801D4FFE7F8E76E480A2101800848C5
:1007C0000178FE2211400170FFE7ECE60AB010BD8F
:1007D000613D00006E3D00002A2D0000733D0000C9
:1007E000780000201C380140B0B586B0002004908D
:1007F000EFF3108072B6059003A8FB210170FFF79C
:10080000F7FD1B4801680122D2061143016062B660
:10081000FFE718480078232827DCFFE7FFF7B2FE40
:1008200015480168426803AB1B785BB2DC17029085
:10083000084611461A462346FFF7B0FC029A51605B
:1008400010600E48016843681268029C6568019058
:10085000084619462B46FFF7A1FC019A516010602B
:1008600004480178491C0170D3E7049806B0B0BD74
:1008700000E100E00800002000000020100000203F
:1008800010B58AB00A4603460991089037480078A7
:1008900007A9087006A8002101700998002813D53F
:1008A000FFE7FFE7324800680006002801D4FFE7B1
:1008B000F8E730482D210180099808990022494223
:1008C000824108910992FFE7FFE7099808990143DF
:1008D000002920D0FFE7089809990A2200230492F2
:1008E0000393FFF773FC3032204B1B789B00224CA4
:1008F000E250089A099B0290104601911946049A09
:10090000039BFFF763FC09910890FFE71748017804
:10091000491C0170D9E705A800210170FFE71348C1
:10092000007807A90978401A05A9097888421BDBD5
:10093000FFE706A801210170FFE70D4800680006E7
:10094000002801D4FFE7F8E70848007805A90978EE
:10095000401A80000849085C06490880FFE70598AE
:10096000401C05A90870DAE70AB010BD7900002024
:100970001C380140283801407C000020A0090008F4
:10098000000000201800000004010008B809000859
:1009900018000020680A0000200100080000000084
:1009A000080000000000000001000000000000003E
:0809B000080000000000000037
:040000050800016589
:00000001FF
