:020000040800F2
:10000000800A0020650100086D0100086F010008EA
:1000100000000000000000000000000000000000E0
:100020000000000000000000000000007101000856
:1000300000000000000000007301000875010008C6
:1000400077010008770100087701000877010008B0
:1000500077010008770100087701000877010008A0
:100060007701000877010008770100087701000890
:100070007701000877010008770100087701000880
:100080007701000877010008770100087701000870
:100090007701000877010008770100087701000860
:1000A000770100087701000877010008A90400081B
:1000B0007701000877010008770100087701000840
:1000C00000F002F800F03EF80CA030C80838241800
:1000D0002D18671EA246AB4654465D46AC4201D180
:1000E00000F030F87E460F3EB6460FCC0126334274
:1000F00000D0FB1A3343A246AB4618479C080000C9
:10010000BC080000103A02D378C878C1FAD8520768
:1001100001D330C830C101D504680C6070470000BD
:100120000023002400250026103A01D378C1FBD813
:10013000520700D330C100D50B6070471FB51FBDFB
:1001400010B510BD00F020F91146FFF7F7FF00F0E1
:1001500053FB00F038F903B4FFF7F2FF03BC00F0E3
:100160003FF900000748804707480047FEE7FEE7E1
:10017000FEE7FEE7FEE7FEE704480549054A064BB1
:1001800070470000A5040008C1000008800400209A
:10019000800A00208006002080060020434351434F
:1001A00030B55C18010C130C0D4692B25D4380B261
:1001B00051432C19054655430A0C09044D19624157
:1001C0005843010C00044019514130BD70B505463B
:1001D00010460C4618430ED000210846891A984153
:1001E00027DA00210846491BA04118DA2846214693
:1001F00000F042F870BD002C03DA01230022DB0777
:1002000007E000210846491BA04102DA0022D24340
:10021000530810461946C046C0462A4627E000212A
:100220006842A14100F028F8002440428C41214658
:100230001AE000210846491BA0410CDA21460020A3
:10024000524298410346284600F016F800244042E6
:100250008C41214670BD0020524298410021034646
:100260006842A14100F008F8002452429C41234614
:1002700070BD704770477047FEB5044610460D4686
:10028000184373D0A6468C460020A41A01469D410F
:1002900067D36646002701243D46B61A9D4102D326
:1002A00013463A462124654676462F04360C3E43D3
:1002B0002D0CB61A9D4104D3150C1B042B431204BC
:1002C0001034654676462F06360A3E432D0AB61A86
:1002D0009D4104D3150E1B022B43120208346546C0
:1002E00076462F0736093E432D09B61A9D4104D3A1
:1002F000150F1B012B431201241D65467646AF07DF
:10030000B6083E43AD08B61A9D4104D3950F9B0035
:100310002B439200A41C65467646EF0776083E43C1
:100320006D08B61A9D411AD392185B41641C16E001
:100330000018764665464941B71A9D4101910090E3
:1003400009D36046B11A98418E46844600980199B7
:100350000025401C6941DD0752082A435B08641EE2
:10036000E6D57246634603B0F0BDFFE7204628435A
:1003700007D00020C0430146C046C04622462B4657
:10038000F1E700200146F7E7754600F025F8AE4694
:10039000050069465346C008C000854618B020B520
:1003A000FFF7EAFE60BCB64600260027C0C5C0C500
:1003B000C0C5C0C5C0C5C0C5C0C5C0C5403D490851
:1003C00049008D46704710B50446C046C0462046D9
:1003D000FFF7C1FE10BD0000004870471800002064
:1003E00001491820ABBEFEE726000200704700005E
:1003F000B0B52248016801229303194301602048E7
:1004000001685304194301600920C00601680523EF
:10041000DB04194301601B48016811231B011943C8
:100420000160194801685302994301601748016847
:1004300003239C04A143016015490D6825430D6009
:1004400001681B05994301600168130519430160A8
:1004500010480168914301600F4945230B600C214E
:10046000016001686023194301600C4900230B609F
:100470000B490B60016811430160B0BD18100240C8
:100480001410024024000048040000480C000048FA
:1004900008000048003801400C3801400438014091
:1004A000083801407047000081B0C94800688006E4
:1004B000002848D5FFE72A48008869460870087870
:1004C000692806D1FFE7C148017804221143017071
:1004D000FFE768460078652806D1FFE7BB4801784A
:1004E000022211430170FFE768460078732806D1A5
:1004F000FFE7B6480178012211430170FFE7684623
:10050000007866280CD1FFE7B04800780821084041
:10051000C008002804D1FFE7AC480821017011E0B1
:100520006846007866280CD1FFE7A84800780821C3
:100530000840C008012804D1FFE7A4480021017049
:10054000FFE7FFE7FFE7A24800684006002804D560
:10055000FFE7044840210160FFE701B07047C04653
:10056000243801402038014010B58CB00BA89349C5
:1005700001800AA83D218170914A028009A8352294
:100580008270904A028008A881708F490180FFE73D
:100590008E48007808210840C008012800D00AE1F0
:1005A0008A48007804210840800801284AD1FFE7E2
:1005B00007A800210170FFE707A80078012814DCD4
:1005C000FFE7FFE7F14800680006002801D4FFE7D5
:1005D000F8E707A800780BA9085CED490880FFE759
:1005E0000798401C07A90870E6E7A9484168006819
:1005F00000F054F906A800210170FFE706A8007872
:10060000012814DCFFE7FFE7E04800680006002847
:1006100001D4FFE7F8E706A800780AA9085CDC49DE
:100620000880FFE70698401C06A90870E6E797488F
:100630000078002100F032F964480178FB22114073
:100640000170FFE761480078022108404008012856
:1006500060D1FFE705A800210170FFE705A8007839
:10066000012814DCFFE7FFE7C848006800060028FF
:1006700001D4FFE7F8E705A800780BA9085CC44996
:100680000880FFE70598401C05A90870E6E7804848
:100690004168006800F002F9FFE7BC480068000606
:1006A000002801D4FFE7F8E7B9483D2101807848E8
:1006B000016840680422D2430023DC4301900846CD
:1006C000019900932346FFF781FD00F0E7F804A8A5
:1006D00000990170FFE704A80078022814DCFFE706
:1006E000FFE7AA4800680006002801D4FFE7F8E702
:1006F00004A8007809A9085CA5490880FFE70498C8
:10070000401C04A90870E6E730480178FD2211403A
:100710000170FFE72D480078C00700284AD0FFE7A6
:1007200003A800210170FFE703A80078012814DC6A
:10073000FFE7FFE7954800680006002801D4FFE7BF
:10074000F8E703A800780BA9085C91490880FFE747
:100750000398401C03A90870E6E74D48416800680B
:1007600000F09CF802A800210170FFE702A80078C1
:10077000012814DCFFE7FFE7844800680006002832
:1007800001D4FFE7F8E702A8007808A9085C8049CF
:100790000880FFE70298401C02A90870E6E73D4880
:1007A0004168006800F07AF808480178FE2211409C
:1007B0000170FFE7ECE60CB010BDC046613D0000E3
:1007C0002C6E00002A2D00002C7300007800002001
:1007D0001C38014082B0019000200090FFE7009893
:1007E0000199884205D2FFE7FFE70098401C00907E
:1007F000F5E702B070470000B0B586B00020049065
:10080000EFF3108072B6059003A8FB210170FFF78B
:10081000EFFD1D4801680122D2061143016062B656
:10082000FFE71A48007823282ADCFFE71848016808
:10083000426803AB1B785BB2DC1702900846114696
:100840001A462346FFF7AAFC029A5160106011482D
:10085000016843681268029C656801900846194661
:100860002B46FFF79BFC019A516010600748017806
:10087000491C01700848FFF7ADFFFFF775FED0E790
:10088000049806B0B0BDC04600E100E008000020BA
:10089000000000201000002020A1070010B58AB041
:1008A0000A460346099108903748007807A908705E
:1008B00006A8002101700998002813D5FFE7FFE77B
:1008C000324800680006002801D4FFE7F8E7304806
:1008D0002D210180099808990022494282410891FE
:1008E0000992FFE7FFE7099808990143002920D002
:1008F000FFE7089809990A22002304920393FFF75F
:1009000065FC3032204B1B789B00224CE250089A49
:10091000099B0290104601911946049A039BFFF728
:1009200055FC09910890FFE717480178491C0170B0
:10093000D9E705A800210170FFE71348007807A94F
:100940000978401A05A9097888421BDBFFE706A849
:1009500001210170FFE70D4800680006002801D45E
:10096000FFE7F8E70848007805A90978401A8000F1
:100970000849085C06490880FFE70598401C05A95E
:100980000870DAE70AB010BD790000201C38014079
:10099000283801407C000020B80900080000002031
:1009A0001800000004010008D00900081800002009
:1009B000680A000020010008080000000000000094
:1009C000010000000000000008000000000000001E
:040000050800016589
:00000001FF
