:020000040800F2
:1000000078060020650100086D0100086F010008F6
:1000100000000000000000000000000000000000E0
:100020000000000000000000000000007101000856
:1000300000000000000000007301000875010008C6
:1000400077010008770100087701000877010008B0
:1000500077010008770100087701000877010008A0
:100060007701000877010008770100087701000890
:100070007701000877010008770100087701000880
:100080007701000877010008770100087701000870
:100090007701000877010008770100087701000860
:1000A0007701000877010008770100082D04000897
:1000B0007701000877010008770100087701000840
:1000C00000F002F800F03EF80CA030C80838241800
:1000D0002D18671EA246AB4654465D46AC4201D180
:1000E00000F030F87E460F3EB6460FCC0126334274
:1000F00000D0FB1A3343A246AB4618473805000030
:1001000058050000103A02D378C878C1FAD85207CF
:1001100001D330C830C101D504680C6070470000BD
:100120000023002400250026103A01D378C1FBD813
:10013000520700D330C100D50B6070471FB51FBDFB
:1001400010B510BD00F0E3F81146FFF7F7FF00F01F
:10015000BFF900F0FBF803B4FFF7F2FF03BC00F0B7
:1001600001F900000748804707480047FEE7FEE71F
:10017000FEE7FEE7FEE7FEE704480549054A064BB1
:100180007047000029040008C10000087800002022
:10019000780600207802002078020020002203095F
:1001A0008B422CD3030A8B4211D300239C464EE092
:1001B00003460B433CD4002243088B4231D303094E
:1001C0008B421CD3030A8B4201D394463FE0C30900
:1001D0008B4201D3CB01C01A524183098B4201D318
:1001E0008B01C01A524143098B4201D34B01C01A03
:1001F000524103098B4201D30B01C01A5241C3087B
:100200008B4201D3CB00C01A524183088B4201D3E9
:100210008B00C01A524143088B4201D34B00C01AD5
:100220005241411A00D201465241104670475DE0EA
:10023000CA0F00D04942031000D3404253409C46AD
:10024000002203098B422DD3030A8B4212D389016A
:10025000FC2212BA030A8B420CD3890192118B4201
:1002600008D3890192118B4204D389013AD09211AB
:1002700000E08909C3098B4201D3CB01C01A524166
:1002800083098B4201D38B01C01A524143098B422F
:1002900001D34B01C01A524103098B4201D30B0118
:1002A000C01A5241C3088B4201D3CB00C01A52413D
:1002B00083088B4201D38B00C01A5241D9D2430824
:1002C0008B4201D34B00C01A5241411A00D2014661
:1002D0005241104663465B1001D34042002B00D5CB
:1002E0004942704763465B1000D3404201B505495F
:1002F000002802DC491C084000E00846C046C04611
:1003000002BD00BFFFFFFF7F704770477047754613
:1003100000F024F8AE46050069465346C008C00008
:10032000854618B020B5FFF727FF60BCB64600260B
:100330000027C0C5C0C5C0C5C0C5C0C5C0C5C0C5F3
:10034000C0C5403D490849008D46704710B5044678
:10035000C046C0462046FFF7FEFE10BD004870476D
:100360001000002001491820ABBEFEE72600020065
:1003700070470000B0B52248016801229303194379
:100380000160204801685304194301600920C00638
:1003900001680523DB04194301601B480168112330
:1003A0001B01194301601948016853029943016018
:1003B0001748016803239C04A143016015490D6897
:1003C00025430D6001681B05994301600168130511
:1003D0001943016010480168914301600F494523AA
:1003E0000B600C21016001686023194301600C4916
:1003F00000230B600B490B60016811430160B0BD25
:100400001810024014100240240000480400004864
:100410000C00004808000048003801400C3801403A
:1004200004380140083801407047000081B07F481F
:1004300000688006002838D5FFE722480088694612
:1004400008700878692801D1FFE7FFE7684600785F
:10045000652806D1FFE71C4801781022114301707E
:10046000FFE768460078732806D1FFE71648017851
:10047000012211430170FFE768460078662805D124
:10048000FFE70020002801D1FFE70DE06846007873
:10049000662808D1FFE70020012804D1FFE70A48B9
:1004A00000210170FFE7FFE7FFE7604800684006B2
:1004B000002804D5FFE7054840210160FFE701B0AF
:1004C0007047C046243801407000002020380140A9
:1004D00080B584B000200290EFF3108072B60390D4
:1004E00001A8FB210170FFF745FF144801680122B4
:1004F000D2061143016062B6FFE711480078242854
:1005000019DCFFE70F48016801AA127852B24A438A
:1005100002600D490A68036853430B6008490A7872
:10052000521C0A700068009100F010F800980078E2
:1005300000F00CF8E1E7029804B080BD00E100E0B3
:1005400004000020000000200800002080B5A6B0B4
:100550002590302024900A20239022A800210170A9
:10056000259800280FD5FFE7FFE730480068000610
:10057000002801D4FFE7F8E72D482D2101802598B8
:1005800040422590FFE703A81D210170FFE7259851
:10059000002819D0FFE725982399FFF709FE249A30
:1005A000891803AA1278920004AB99502599239ACE
:1005B000019008461146FFF7FBFD2590FFE70398E1
:1005C000401E03A90870E2E702A800210170FFE7BE
:1005D00002A800781D2826DCFFE702A8007880002A
:1005E00004A90858302805D1FFE722A80078002880
:1005F00013D1FFE722A801210170FFE70B48006833
:100600000006002801D4FFE7F8E702A80078800080
:1006100004A9085C06490880FFE7FFE70298401C30
:1006200002A90870D4E726B080BDC0461C3801403E
:100630002838014054060008000000200C0000008B
:100640000401000860060008100000206806000091
:100650002001000808000000010000000800000060
:040000050800016589
:00000001FF
