:020000040800F2
:10000000680600204901000851010008530100085A
:1000100000000000000000000000000000000000E0
:100020000000000000000000000000005501000872
:1000300000000000000000005701000859010008FE
:100040005B0100085B0100085B0100085B01000820
:100050005B0100085B0100085B0100085B01000810
:100060005B0100085B0100085B0100085B01000800
:100070005B0100085B0100085B0100085B010008F0
:100080005B0100085B0100085B0100085B010008E0
:100090005B0100085B0100085B0100085B010008D0
:1000A0005B0100085B0100085B010008A502000875
:1000B0005B0100085B0100085B0100085B010008B0
:1000C00000F002F800F030F80CA030C8083824180E
:1000D0002D18671EA246AB4654465D46AC4201D180
:1000E00000F022F87E460F3EB6460FCC0126334282
:1000F00000D0FB1A3343A246AB461847100200005B
:10010000200200000023002400250026103A01D31D
:1001100078C1FBD8520700D330C100D50B607047BF
:100120001FB51FBD10B510BD00F02DF81146FFF72B
:10013000F7FF00F0D5F800F045F803B4FFF7F2FF41
:1001400003BC00F04BF80000074880470748004711
:10015000FEE7FEE7FEE7FEE7FEE7FEE704480549A7
:10016000054A064B70470000A1020008C1000008C4
:100170006800002068060020680200206802002055
:10018000704770477047754600F024F8AE4605008A
:1001900069465346C008C000854618B020B5FFF731
:1001A000DDFF60BCB64600260027C0C5C0C5C0C57F
:1001B000C0C5C0C5C0C5C0C5C0C5403D490849008F
:1001C0008D46704710B50446C046C0462046FFF72E
:1001D000B4FF10BD004870470000002001491820FE
:1001E000ABBEFEE72600020070470000B0B5224813
:1001F00001680122930319430160204801685304F8
:10020000194301600920C00601680523DB04194376
:1002100001601B48016811231B0119430160194843
:1002200001685302994301601748016803239C0445
:10023000A143016015490D6825430D6001681B0548
:100240009943016001681305194301601048016872
:10025000914301600F4945230B600C210160016847
:100260006023194301600C4900230B600B490B60AC
:10027000016811430160B0BD181002401410024023
:1002800024000048040000480C0000480800004812
:10029000003801400C380140043801400838014062
:1002A000704700000A4800688006002805D5FFE76F
:1002B0000848008808490870FFE7054800684006BC
:1002C000002804D5FFE7054840210160FFE770479B
:1002D0001C380140243801406000002020380140D3
:1002E00080B582B000200090EFF3108072B60190CC
:1002F000FFF77CFF044801680122D2061143016028
:1003000062B6FFE7FEE7C04600E100E01C0300081C
:0C03100000000020680600000401000846
:0400000508000149A5
:00000001FF
