:020000040800F2
:1000000078060020650100086D0100086F010008F6
:1000100000000000000000000000000000000000E0
:100020000000000000000000000000007101000856
:1000300000000000000000007301000875010008C6
:1000400077010008770100087701000877010008B0
:1000500077010008770100087701000877010008A0
:100060007701000877010008770100087701000890
:100070007701000877010008770100087701000880
:1000800077010008550A00086D0B00087701000889
:100090007701000877010008770100087701000860
:1000A0007701000877010008770100087701000850
:1000B0007701000877010008770100087701000840
:1000C00000F002F800F03EF80CA030C80838241800
:1000D0002D18671EA246AB4654465D46AC4201D180
:1000E00000F030F87E460F3EB6460FCC0126334274
:1000F00000D0FB1A3343A246AB461847100B000052
:10010000300B0000103A02D378C878C1FAD85207F1
:1001100001D330C830C101D504680C6070470000BD
:100120000023002400250026103A01D378C1FBD813
:10013000520700D330C100D50B6070471FB51FBDFB
:1001400010B510BD00F004FC1146FFF7F7FF00F0FA
:1001500039FD00F01CFC03B4FFF7F2FF03BC00F014
:1001600023FC00000748804707480047FEE7FEE7FA
:10017000FEE7FEE7FEE7FEE704480549054A064BB1
:1001800070470000510A0008C100000878000020F4
:10019000780600207802002078020020002203095F
:1001A0008B422CD3030A8B4211D300239C464EE092
:1001B00003460B433CD4002243088B4231D303094E
:1001C0008B421CD3030A8B4201D394463FE0C30900
:1001D0008B4201D3CB01C01A524183098B4201D318
:1001E0008B01C01A524143098B4201D34B01C01A03
:1001F000524103098B4201D30B01C01A5241C3087B
:100200008B4201D3CB00C01A524183088B4201D3E9
:100210008B00C01A524143088B4201D34B00C01AD5
:100220005241411A00D201465241104670475DE0EA
:10023000CA0F00D04942031000D3404253409C46AD
:10024000002203098B422DD3030A8B4212D389016A
:10025000FC2212BA030A8B420CD3890192118B4201
:1002600008D3890192118B4204D389013AD09211AB
:1002700000E08909C3098B4201D3CB01C01A524166
:1002800083098B4201D38B01C01A524143098B422F
:1002900001D34B01C01A524103098B4201D30B0118
:1002A000C01A5241C3088B4201D3CB00C01A52413D
:1002B00083088B4201D38B00C01A5241D9D2430824
:1002C0008B4201D34B00C01A5241411A00D2014661
:1002D0005241104663465B1001D34042002B00D5CB
:1002E0004942704763465B1000D3404201B505495F
:1002F000002802DC491C084000E00846C046C04611
:1003000002BD00BFFFFFFF7F7047704770470000CE
:10031000F0B50C46871A9C410D46861A9D4103D2C2
:10032000C01BA141D21963410D0D1F0DC94EEC1B1D
:10033000AE435CD07F057F0D0026002F51D02D05E8
:10034000AC46A943DD020123ED0A1B051D43202312
:100350001B1B24D41746E740381871412F46E7404D
:10036000CC199D402818314661410C0D27D16144BC
:100370009A4013D50023401C594152000ED1400829
:10038000400001224B005205D34207D3052040070D
:10039000C14201D5B04900E0B0493046F0BD6B0024
:1003A000002A00D001229A181F23203C1B1B01D5D4
:1003B000002302E0E540281871410C0DD7D001243C
:1003C00024050919C407CD0740084908E40F28434C
:1003D0006144002CD5D00024401C61419A40D0D10A
:1003E000CDE76A05520DD9D1C90FC907D5E79C4D94
:1003F0004E00002801D0012400E0002434195F00E1
:10040000002A01D0012600E00026BE19954FAC421B
:100410000CD8AE420AD8B44206D001256D05EC4294
:10042000BCD010461946F0BD9942FCD00020394698
:10043000F0BDF0B51FB40C460F46811A9F4125460A
:10044000861A9D4106D20125ED076F40401ABC4136
:1004500052187B41210D1E0D8D1BAC467D4D8D43E9
:100460007ED075056D0D7CD00D05AE46AC431B03EB
:100470001B0B794D52429D41202366469B1B14D392
:100480001746F740381800260090744160462F4602
:100490000741E41900989D402818664116D471461A
:1004A00071189A4025D5012320E093182A466A4105
:1004B0005200002B00D0521C1E23203E9B1B002B01
:1004C00061DD3541EE1728186641E8D50018764100
:1004D0005B1C9A4000D3401C4B05F3181524E340E5
:1004E00010D3002B52D071467118D30FC01802D30D
:1004F000491C05B0F0BD0123DB079A42F9D1400841
:100500004000F6E701225205B21801D1002853D06D
:100510000123CC0ADB029943891E002A08D1020C70
:1005200003D0020C0004103902E0024600202039FA
:100530000023550B05D112020823550B01D152019E
:100540000D23550C01D112011B1DD50C01D19200B8
:100550009B1C150D01D152005B1C2025EE1A01E0F9
:100560002CE022E00546F54015439840CA1AE10701
:1005700069181305C918002ABBDA032040070818B8
:10058000C10FC9070FE071466118B2E7F1074008D3
:100590000843711071444A000CD001235B059A4254
:1005A000A7D2C90FC9070020A3E74905490D26D1E5
:1005B000002001E00028F4D100219AE7284D6600D0
:1005C000002801D0012100E0002171185F00002AFD
:1005D00001D0012600E00026BE19224FA94210D802
:1005E000AE420ED8B14208D001256D05E94206D0D1
:1005F0001946A802414010467BE79C4201D02146A3
:1006000077E70020394674E710B50C465C4005D505
:100610000124E4076340FFF70CFF10BDFFF778FEED
:1006200010BD30B40C465C4004D50124E40763409F
:1006300030BC6DE630BCFCE670B50124E4076140D7
:100640000D465D4002D4FFF763FE70BD6340FFF7C7
:10065000F0FE70BDFF0700000000F0FF0000F07F1B
:100660000000E0FF0000F87F0346CA02400D10B50D
:1006700010430A1504D00124E4072043002A05DBB7
:100680000A4CA21A04D4D040FF2A00DD002010BD7D
:100690004A00002B01D0012000E0002010180122A8
:1006A0005205D042F2D8C817C04310BD1E04000046
:1006B0001F22030C02D10F22000402D0030E03D02C
:1006C00004E00020014670470002083A030F01D100
:1006D0000001121F830F01D18000921E002801DB50
:1006E0004000521E120551184205C0124118104612
:1006F0007047C10FC90700D0404201229207114341
:10070000D6E701218907D3E7F0B58B4C0F092546C1
:1007100089B0BD437BD01D092646AE43FAD00E46B4
:100720005E402740F60F3E43254071D02401214210
:10073000FBD0FF24AD19A4042D1B039501252D0525
:10074000DB02DB0AC9022B43C90A29431E01090146
:10075000040F130F050121431701880B82039143F6
:100760002D098C46A90B1E438A039543B30B9A03AC
:1007700096433F09BA0B9403A74302962E467E4345
:100780000497B6464E19D7190C460196544305975F
:100790007E43371B7646BF1B3601B646BE0B361965
:1007A00000967646BC043719009C01D3641C009463
:1007B0006400002F01D001263443029E049F75433C
:1007C00066467E430496760034196E003419009410
:1007D000029C019E1C196643751BAE460694654635
:1007E0004519059C05956C43594375460891691A4E
:1007F0000191049E01465143A41B0491611A009C7F
:100800000791E10605D061090122114302E072E07F
:100810006EE06109089D00272C0A2D066918049DC9
:100820007C412A0A2D066918019D6241AC0DAD027A
:100830006D185441079A910D920255196141029A1F
:10084000644658435443069B059A5A43121A131B95
:100850009A0E9B015B187A41010B0005C3185141A8
:10086000220A200644195A419A4200D2491C01200A
:100870004002814203D315230226F64302E01423EB
:100880000326F6432020C51AA9401746AF40DA4098
:100890000A4320460399D8400914731819055118C2
:1008A000039A3843D2075140AC4009D0012294400A
:1008B00006D30022401C5141002C01D140084000C9
:1008C0001E4A934212D3012203989206904207DBFC
:1008D0000520400709181A480143C012414004E0AE
:1008E000032040070818C10FC907002009B0F0BD58
:1008F0000020F107FAE705180C464C4111486D42FB
:10090000A04115D394181A465A410E4864429041AA
:100910000ED301204A004005824209D35A00824288
:1009200006D35940C90F084AC90700201143DDE723
:1009300000200649DAE700000000FF07FE0700007C
:10094000FFFFFF7F0000E0FF0000F07F0000F87F66
:10095000754600F025F8AE46050069465346C008C6
:10096000C000854618B020B5FFF706FC60BCB6464F
:1009700000260027C0C5C0C5C0C5C0C5C0C5C0C50C
:10098000C0C5C0C5403D490849008D46704710B5F7
:100990000446C046C0462046FFF7DDFB10BD000000
:1009A000004870471000002001491820ABBEFEE748
:1009B00026000200704700000948016801229304E4
:1009C0001943016007480168074B1943016001683A
:1009D000FF231B06994301601002624908607047BB
:1009E000141002400004004805000100134801688B
:1009F0003022114301601248072101601148016053
:100A00006A480168032212031140890A684A515852
:100A1000694A1160006880B2800B7D210901414361
:100A2000474808184B4908600748016801221143EC
:100A30000160064801681143016070471C100240C4
:100A400028100040281400400C1000400C140040F6
:100A50007047000080B588B038480078C00700288B
:100A60002AD1FFE75148006880B2800B7D2109013F
:100A7000414333480818FFF744FE324A364BFFF72C
:100A800043FE4E4A1268521C079010460691FFF72B
:100A900038FE2E4A314BFFF737FE079A0590104675
:100AA000069B04911946059A049BFFF7ADFDFFF7DD
:100AB000DBFD2849086030E020480078C0070028A6
:100AC0002AD0FFE73948006880B2800B7D210901F8
:100AD00041431B480818FFF714FE1A4A1A4BFFF748
:100AE00013FE364A1268521C039010460291FFF71B
:100AF00008FE164A164BFFF707FE039A01901046B0
:100B0000029B00911946019A009BFFF77DFDFFF7BC
:100B1000ABFD10490860FFE7FFE7084801780122B4
:100B200013468B4303700E490A60007810400D494C
:100B300008600D480021016008B080BD74000020ED
:100B4000B80B00009A9999999999B93F9B93405C89
:100B5000A83919402C1000409999E93FA83919C0CB
:100B600028040048180400481010004080B50F48C1
:100B70000068032109030840800A0D4909580D48FF
:100B8000FFF70CFB0C4908600C480168491C016028
:100B90000068FF214E31884204D1FFE70748002159
:100BA0000160FFE706480021016080BD1004004895
:100BB0000000002040420F002C1400407000002074
:100BC0001014004080B582B000200090EFF3108038
:100BD00072B60190FFF7F0FEFFF708FF08480168C2
:100BE000032252041143016062B6064801680122E3
:100BF000114301600448016811430160FFE7FEE70B
:100C000000E100E000140040001000402C0C00083F
:100C10000000002010000000040100083C0C000847
:100C2000100000206806000020010008BB0B000037
:0C0C3000E903000058020000AD010000C4
:040000050800016589
:00000001FF
