:020000040800F2
:10000000B0120020650100086D0100086F010008B2
:1000100000000000000000000000000000000000E0
:100020000000000000000000000000007101000856
:1000300000000000000000007301000875010008C6
:1000400077010008770100087701000877010008B0
:1000500077010008770100087701000877010008A0
:100060007701000877010008770100087701000890
:100070007701000877010008770100087701000880
:1000800077010008590E0008010F000877010008E9
:100090007701000877010008770100087701000860
:1000A0007701000877010008770100087701000850
:1000B0007701000877010008770100087701000840
:1000C00000F002F800F03EF80CA030C80838241800
:1000D0002D18671EA246AB4654465D46AC4201D180
:1000E00000F030F87E460F3EB6460FCC0126334274
:1000F00000D0FB1A3343A246AB4618471C0F000042
:100100003C0F0000103A02D378C878C1FAD85207E1
:1001100001D330C830C101D504680C6070470000BD
:100120000023002400250026103A01D378C1FBD813
:10013000520700D330C100D50B6070471FB51FBDFB
:1001400010B510BD00F072FD1146FFF7F7FF00F08B
:10015000FDFE00F08AFD03B4FFF7F2FF03BC00F0E0
:1001600091FD00000748804707480047FEE7FEE78B
:10017000FEE7FEE7FEE7FEE704480549054A064BB1
:1001800070470000550E0008C1000008B00C0020A8
:10019000B0120020B00E0020B00E00207047704753
:1001A00070470000F0B50C46871A9C410D46861A30
:1001B0009D4103D2C01BA141D21963410D0D1F0DFA
:1001C000C94EEC1BAE435CD07F057F0D0026002F8F
:1001D00051D02D05AC46A943DD020123ED0A1B05D4
:1001E0001D4320231B1B24D41746E74038187141B8
:1001F0002F46E740CC199D402818314661410C0D2F
:1002000027D161449A4013D50023401C5941520024
:100210000ED14008400001224B005205D34207D3C3
:1002200005204007C14201D5B04900E0B049304641
:10023000F0BD6B00002A00D001229A181F23203C39
:100240001B1B01D5002302E0E540281871410C0D6D
:10025000D7D0012424050919C407CD07400849084F
:10026000E40F28436144002CD5D00024401C614198
:100270009A40D0D1CDE76A05520DD9D1C90FC9072F
:10028000D5E79C4D4E00002801D0012400E0002459
:1002900034195F00002A01D0012600E00026BE19B3
:1002A000954FAC420CD8AE420AD8B44206D00125D4
:1002B0006D05EC42BCD010461946F0BD9942FCD009
:1002C00000203946F0BDF0B51FB40C460F46811A28
:1002D0009F412546861A9D4106D20125ED076F40B4
:1002E000401ABC4152187B41210D1E0D8D1BAC469E
:1002F0007D4D8D437ED075056D0D7CD00D05AE46D0
:10030000AC431B031B0B794D52429D412023664693
:100310009B1B14D31746F7403818002600907441F1
:1003200060462F460741E41900989D402818664111
:1003300016D4714671189A4025D5012320E09318F0
:100340002A466A415200002B00D0521C1E23203E38
:100350009B1B002B61DD3541EE1728186641E8D55F
:10036000001876415B1C9A4000D3401C4B05F318E3
:100370001524E34010D3002B52D071467118D30FCF
:10038000C01802D3491C05B0F0BD0123DB079A4217
:10039000F9D140084000F6E701225205B21801D118
:1003A000002853D00123CC0ADB029943891E002A7E
:1003B00008D1020C03D0020C0004103902E00246FE
:1003C000002020390023550B05D112020823550BBC
:1003D00001D152010D23550C01D112011B1DD50C69
:1003E00001D192009B1C150D01D152005B1C2025F0
:1003F000EE1A01E02CE022E00546F5401543984056
:10040000CA1AE10769181305C918002ABBDA0320C4
:1004100040070818C10FC9070FE071466118B2E71D
:10042000F10740080843711071444A000CD00123C1
:100430005B059A42A7D2C90FC9070020A3E7490567
:10044000490D26D1002001E00028F4D100219AE7CF
:10045000284D6600002801D0012100E0002171181C
:100460005F00002A01D0012600E00026BE19224FBD
:10047000A94210D8AE420ED8B14208D001256D0570
:10048000E94206D01946A802414010467BE79C424B
:1004900001D0214677E70020394674E710B50C46B5
:1004A0005C4005D50124E4076340FFF70CFF10BD55
:1004B000FFF778FE10BD30B40C465C4004D5012433
:1004C000E407634030BC6DE630BCFCE670B5012447
:1004D000E40761400D465D4002D4FFF763FE70BD46
:1004E0006340FFF7F0FE70BDFF0700000000F0FF63
:1004F0000000F07F0000E0FF0000F87FF0B5F94D4C
:100500000C091E092C402E402F468BB0A7437DD0EE
:10051000B543FCD0002E7AD0002CFCD00D465D40B7
:10052000ED0F2543AC1BFF25AD0464190894C502EB
:10053000440DC9022143500DDC0204430120C007D1
:1005400001430443D2020191200C110C00958C460A
:10055000010423468B430A9161460904E24D8A4314
:100560000991010A7D4449198039097805464D43AE
:1005700001266D18F605751B6943C90C640B891CAF
:100580004C436418B5012C1B250C2E04B4434C437A
:100590004D43210C691889090591009DE90701D097
:1005A0000121C90704912C4601996708CD072F4303
:1005B0004C08059DE10B4D432D0C294666467543BD
:1005C00002950D4645432E46029D7D1BB441009584
:1005D0000D465D4301942C0C2F040D465543AE4649
:1005E0002D0C3D43029503947546049C2D04641B19
:1005F000049406D2029C039D641C00267541039559
:10060000029401AC70CC009F7D1B01E03EE162E1F1
:10061000B44109040095079101940599A408614328
:10062000090C0C464443650BE7040C4666467443CC
:10063000A646640B3C43039502947446049DE4046F
:100640002C1B049406D2029C039D641C0026754159
:100650000395029401AC70CC009F7D1BB4410194C2
:100660000C465C430095650FE7000C465443A646D4
:10067000640F3C43039502947446049DE4002C1BD4
:10068000049406D2029C039D641C002675410395C8
:10069000029401AC70CC009F7D1BB441AE09AF0643
:1006A000049DC900AD092F43049DA406AD06049521
:1006B000079D344369180791059DE10B4D432D0CAF
:1006C00029466646754302950D4645432E46029DD2
:1006D0007D1BB44100950D465D4301942C0C2F0405
:1006E0000D465543AE462D0C3D4302950394754689
:1006F000049C2D04641B049406D2029C039D641C7C
:10070000002675410395029401AC70CC009F7D1BBF
:10071000B44101948C050694079C890A61180095E0
:100720000791019C0599A4086143090C0D464543B6
:10073000680BEF040D46644665436C0B3C43049F15
:10074000ED047D1BAC4602D20025641C6841009E6E
:10075000019D371B85410846584301950C46460FBD
:10076000C5005443600F28436546E4002C1B02D2A9
:100770000025401C6E41019D3F1AB5412846BD0928
:10078000800628438446A009BF064E020699A406A7
:1007900076180743079D002068410A99079019437E
:1007A0000020099B00906046FF1913434041E20F6F
:1007B00064003A43A4460446D71A8C41A04203D9A8
:1007C0000120009020463A46C70F941840416246E7
:1007D000D20F2243644664000494009CBE46640029
:1007E000D71AA446044602978C417746002F01D1C0
:1007F000A04204D96046401C8446029A2046C40F99
:10080000A64694184041049A0546D20F22436446F6
:100810006400D31A8D417146002901D1A84202D942
:1008200028461A46641C10430122002800D01643B3
:1008300061020020079B891904465C410223002CB9
:1008400002DB491813466441089DCE0A2D145D1938
:100850004B056705E10A2C050D1908993E43C907A8
:100860006940002B08D0934006D30022761C5141EA
:10087000002B01D1760876001C4A002D43DB15427F
:1008800041D0AA433FD030460BB0F0BD06180D460C
:100890004D41174C7642AC411AD395181C465C4129
:1008A000134A6D42A24113D3012252054C00D44297
:1008B0000AD15C00D4420BD04B4002D592021143C6
:1008C000E2E749004908DFE75940C90FC90718E0C6
:1008D00000200849D8E7054801420DD10342F7D06E
:1008E000F2E700000000FF07300A00000000F07F80
:1008F0000000E0FF0000F87F114859400143C0129A
:1009000041400020C0E70123089A9B069A4205DC7B
:10091000032252078918C90FC907B5E705225207F4
:100920008918074A1143D2125140ADE770B51546F8
:100930001C4602460B4628462146FFF7DFFD70BDE8
:10094000FFFFFF7F0346CA02400D10B510430A1592
:1009500004D00124E4072043002A05DB0A4CA21A34
:1009600004D4D040FF2A00DD002010BD4A00002B37
:1009700001D0012000E00020101801225205D042D1
:10098000F2D8C817C04310BD1E0400001F22030C7C
:1009900002D10F22000402D0030E03D004E0002095
:1009A000014670470002083A030F01D10001121FEF
:1009B000830F01D18000921E002801DB4000521EEF
:1009C000120551184205C012411810467047C10F58
:1009D000C90700D04042012292071143D6E7012106
:1009E0008907D3E7F0B58B4C0F09254689B0BD4385
:1009F0007BD01D092646AE43FAD00E465E40274006
:100A0000F60F3E43254071D024012142FBD0FF2444
:100A1000AD19A4042D1B039501252D05DB02DB0A6E
:100A2000C9022B43C90A29431E010901040F130FF0
:100A3000050121431701880B820391432D098C4640
:100A4000A90B1E438A039543B30B9A0396433F09B0
:100A5000BA0B9403A74302962E467E430497B646EC
:100A60004E19D7190C460196544305977E43371B00
:100A70007646BF1B3601B646BE0B36190096764643
:100A8000BC043719009C01D3641C00946400002F3F
:100A900001D001263443029E049F754366467E437F
:100AA0000496760034196E0034190094029C019E5D
:100AB0001C196643751BAE46069465464519059C90
:100AC00005956C43594375460891691A0191049E36
:100AD00001465143A41B0491611A009C0791E10651
:100AE00005D061090122114302E072E06EE0610964
:100AF000089D00272C0A2D066918049D7C412A0AAE
:100B00002D066918019D6241AC0DAD026D1854416E
:100B1000079A910D920255196141029A6446584311
:100B20005443069B059A5A43121A131B9A0E9B01B3
:100B30005B187A41010B0005C3185141220A2006B7
:100B400044195A419A4200D2491C01204002814274
:100B500003D315230226F64302E014230326F643AB
:100B60002020C51AA9401746AF40DA400A43204664
:100B70000399D8400914731819055118039A38437A
:100B8000D2075140AC4009D00122944006D3002244
:100B9000401C5141002C01D1400840001E4A9342A4
:100BA00012D3012203989206904207DB05204007EA
:100BB00009181A480143C012414004E003204007CD
:100BC0000818C10FC907002009B0F0BD0020F107C7
:100BD000FAE705180C464C4111486D42A04115D367
:100BE00094181A465A410E48644290410ED301208F
:100BF0004A004005824209D35A00824206D3594036
:100C0000C90F084AC90700201143DDE70020064943
:100C1000DAE700000000FF07FE070000FFFFFF7F8C
:100C20000000E0FF0000F07F0000F87F754600F054
:100C300025F8AE46050069465346C008C000854603
:100C400018B020B5FFF798FA60BCB646002600271A
:100C5000C0C5C0C5C0C5C0C5C0C5C0C5C0C5C0C56C
:100C6000403D490849008D46704710B50446C046CE
:100C7000C0462046FFF76FFA10BD000000487047DD
:100C80001000002001491820ABBEFEE7260002003C
:100C900070470000B0B58EB0A748016889B2890BD3
:100CA0007D22D3004B43510159188E4A11600068D0
:100CB000032189030840000B8949086000200D903A
:100CC000FFE70D98FF21863188425FDCFFE785480A
:100CD0000068FFF784FE2E4A2E4B0C900B91FFF715
:100CE00081FE0C9A0B9BFFF709FC2B4A2B4B0C9CAB
:100CF0000A9020460B9D09912946FFF773FE089044
:100D000007910C9A0B9BFFF7F9FB0A9A0690104685
:100D1000099B05911946069A059BFFF7CCFB00221B
:100D20001F4BFFF7EBFB0D9A0490104603910292C4
:100D3000FFF74DFE049A01901046039B009119465F
:100D4000019A009BFFF74EFE089A079BFFF7A6FB50
:100D5000029AD300674CE518E05069600D980028AE
:100D60000FD1FFE75F480068FFF739FE0A4A0B4BD7
:100D7000FFF738FE0D9AD2005E4B9C1898506160C8
:100D8000FFE7FFE70D98401C0D909AE70EB0B0BD4D
:100D9000666666666666EE3F7B14AE47E17A843F20
:100DA000005078400948016801229304194301600A
:100DB00007480168074B194301600168FF231B06C0
:100DC0009943016010024C490860704714100240BA
:100DD000000400480500010010B5184801683022E1
:100DE0001143016054480168032293031940090B21
:100DF0007D23DC004C43590161183B4C21601049B4
:100E0000104C0C60016812031140890A4B4A51587A
:100E10004B4A1160006880B2800B190141430A48B7
:100E2000081833490860094801680122114301602C
:100E3000074801681143016010BDC0461C10024004
:100E400028140040FF117A00B80B00000C1000407D
:100E50000C1400407047000080B5214800683649F6
:100E60000968032292031140090B88420CD0FFE766
:100E70003148006880B2800B7D21CA00424348019E
:100E8000101818490860FFE71648006816490860FE
:100E9000FFF700FF15480078C00700280CD1FFE7D6
:100EA00028480068C00013490A1808585168FFF71D
:100EB00049FD0F49086004E00A4800680C490860D1
:100EC000FFE70A480178012213468B43037000783C
:100ED00010400949086009480021016080BDC046F2
:100EE0007000002074000020281000407C000020CA
:100EF0002C10004080000020180400481010004012
:100F00000D480068032109030840800A0B4908586E
:100F10000B4908600B480168491C01600068C32147
:100F20004900884204D1FFE7064800210160FFE73D
:100F300005480021016070471004004800000020AF
:100F40002C140040780000201014004080B582B0BE
:100F500000200090EFF3108072B60190FFF722FF9F
:100F6000FFF798FEFFF738FF084801680322520494
:100F70001143016062B60648016801221143016015
:100F80000448016811430160FFE7FEE700E100E06B
:100F9000001400400010004080807F7E7D7C7B7AC2
:100FA0007978777676757473727171706F6E6E6D15
:100FB0006C6C6B6A6A6968686766666564646363BB
:100FC00062616160605F5F5E5E5D5D5C5C5B5B5A41
:100FD0005A595958585757565655555554545353AE
:100FE00052525251515050504F4F4F4E4E4D4D4D09
:100FF0004C4C4C4B4B4B4A4A4A4949494848484754
:101000004747474646464545454444444443434391
:101010004342424242414141381000080000002052
:101020001000000004010008481000081000002013
:10103000A0120000200100080800000006000000C7
:081040000400000002000000A2
:040000050800016589
:00000001FF
