:020000040800F2
:1000000070060020650100086D0100086F010008FE
:1000100000000000000000000000000000000000E0
:100020000000000000000000000000007101000856
:1000300000000000000000007301000875010008C6
:1000400077010008770100087701000877010008B0
:1000500077010008770100087701000877010008A0
:100060007701000877010008770100087701000890
:100070007701000877010008770100087701000880
:100080007701000871020008770100087701000875
:100090007701000877010008770100087701000860
:1000A0007701000877010008770100087701000850
:1000B0007701000877010008770100087701000840
:1000C00000F002F800F03EF80CA030C80838241800
:1000D0002D18671EA246AB4654465D46AC4201D180
:1000E00000F030F87E460F3EB6460FCC0126334274
:1000F00000D0FB1A3343A246AB4618470402000067
:1001000024020000103A02D378C878C1FAD8520706
:1001100001D330C830C101D504680C6070470000BD
:100120000023002400250026103A01D378C1FBD813
:10013000520700D330C100D50B6070471FB51FBDFB
:1001400010B510BD00F02DF81146FFF7F7FF00F0D5
:10015000B9F800F045F803B4FFF7F2FF03BC00F074
:100160004BF800000748804707480047FEE7FEE7D6
:10017000FEE7FEE7FEE7FEE704480549054A064BB1
:10018000704700006D020008C100000870000020E8
:100190007006002070020020700200207047704737
:1001A0007047754600F024F8AE4605006946534690
:1001B000C008C000854618B020B5FFF7DDFF60BC61
:1001C000B64600260027C0C5C0C5C0C5C0C5C0C54D
:1001D000C0C5C0C5C0C5403D490849008D467047EF
:1001E00010B50446C046C0462046FFF7B4FF10BD18
:1001F000004870470800002001491820ABBEFEE708
:10020000260002007047000009480168012293049B
:100210001943016007480168074B194301600168F1
:100220000F231B06994301601002244908607047A0
:10023000141002400004004801000100074810218A
:1002400001600748074901601748006818490860BD
:100250000548016801221143016070471C100240EB
:10026000281000403F1F00000C10004070470000A5
:100270000D4800680D490968032212031140090B5B
:1002800088400B4908600B480178012213468B43D4
:10029000037009490A60007810400849086008485E
:1002A000002101607047C046000000201004004893
:1002B0002C10004068000020280400481804004862
:1002C0001010004080B582B000200090EFF3108045
:1002D00072B60190FFF798FFFFF7B0FF064801687C
:1002E000012253041943016062B6044801681143B6
:1002F0000160FFE7FEE7C04600E100E000100040BB
:100300002003000800000020040000000401000891
:1003100024030008080000206806000020010008EF
:040320007D0000005C
:040000050800016589
:00000001FF
