:020000040800F2
:100000006807002049010008510100085301000859
:1000100000000000000000000000000000000000E0
:100020000000000000000000000000005501000872
:1000300000000000000000005701000859010008FE
:100040005B0100085B0100085B0100085B01000820
:100050005B0100085B0100085B0100085B01000810
:100060005B0100085B0100085B0100085B01000800
:100070005B0100085B0100085B0100085B010008F0
:100080005B0100085B0100085B0100085B010008E0
:100090005B0100085B0100085B0100085B010008D0
:1000A0005B0100085B0100085B0100080D0400080B
:1000B0005B0100085B0100085B0100085B010008B0
:1000C00000F002F800F030F80CA030C8083824180E
:1000D0002D18671EA246AB4654465D46AC4201D180
:1000E00000F022F87E460F3EB6460FCC0126334282
:1000F00000D0FB1A3343A246AB461847F804000071
:10010000080500000023002400250026103A01D332
:1001100078C1FBD8520700D330C100D50B607047BF
:100120001FB51FBD10B510BD00F0E3F81146FFF775
:10013000F7FF00F0FFF900F0FBF803B4FFF7F2FF60
:1001400003BC00F001F9000007488047074800475A
:10015000FEE7FEE7FEE7FEE7FEE7FEE704480549A7
:10016000054A064B7047000009040008C10000085A
:100170006801002068070020680300206803002051
:10018000002203098B422CD3030A8B4211D3002394
:100190009C464EE003460B433CD4002243088B426E
:1001A00031D303098B421CD3030A8B4201D39446FB
:1001B0003FE0C3098B4201D3CB01C01A52418309EE
:1001C0008B4201D38B01C01A524143098B4201D3A8
:1001D0004B01C01A524103098B4201D30B01C01AD3
:1001E0005241C3088B4201D3CB00C01A524183084D
:1001F0008B4201D38B00C01A524143088B4201D37A
:100200004B00C01A5241411A00D2014652411046D9
:1002100070475DE0CA0F00D04942031000D340424E
:1002200053409C46002203098B422DD3030A8B4284
:1002300012D38901FC2212BA030A8B420CD3890122
:1002400092118B4208D3890192118B4204D3890108
:100250003AD0921100E08909C3098B4201D3CB0146
:10026000C01A524183098B4201D38B01C01A5241FB
:1002700043098B4201D34B01C01A524103098B42FF
:1002800001D30B01C01A5241C3088B4201D3CB00EA
:10029000C01A524183088B4201D38B00C01A5241CD
:1002A000D9D243088B4201D34B00C01A5241411AA4
:1002B00000D201465241104663465B1001D34042D2
:1002C000002B00D54942704763465B1000D3404283
:1002D00001B50549002802DC491C084000E0084639
:1002E000C046C04602BD00BFFFFFFF7F704770479A
:1002F0007047754600F024F8AE460500694653463F
:10030000C008C000854618B020B5FFF727FF60BCC5
:10031000B64600260027C0C5C0C5C0C5C0C5C0C5FB
:10032000C0C5C0C5C0C5403D490849008D4670479D
:1003300010B50446C046C0462046FFF7FEFE10BD7D
:10034000004870470000002001491820ABBEFEE7BE
:100350002600020070470000B0B522480168012263
:1003600093031943016099480168530419430160DC
:100370000920C00601680523DB04194301601A48FF
:10038000016811231B0119430160184801685302D9
:10039000994301601648016803239C04A14301604E
:1003A00014490D6825430D6001681B0599430160E0
:1003B00001681305194301600F480168914301600A
:1003C0000E4945230B600C2101600168602319432D
:1003D00001600B4900230B600A490B60016811435F
:1003E0000160B0BD1810024024000048040000481D
:1003F0000C00004808000048003801400C3801405B
:1004000004380140083801407047000010B588B03A
:100410003A4800688006002853D5FFE7384800882E
:1004200007A9087008786422059111460492FFF725
:10043000A7FE06A908700698049941430798401A38
:100440000599087006983030644A13685C1C146083
:10045000DBB22C4CE05408780A231946039202942C
:100460000193FFF78DFE303003990A68531C0B602F
:10047000D2B2029B9854059800780199FFF780FE4C
:1004800030221143039A13685C1C1460DBB2029C97
:10049000E15411684B1C1360C9B220236354FFE779
:1004A000164800680006002801D4FFE7F8E74C482A
:1004B00001684A1C0260C8B21249085C12490880EF
:1004C000FFE70E4800684006002815D5FFE70F48F3
:1004D00040210160424800684049096888420AD2C8
:1004E000FFE73F4801684A1C0260C8B20549085C42
:1004F00005490880FFE7FFE708B010BD1C38014040
:100500002438014060000020283801402038014094
:1005100082B0019000200090FFE700980199884286
:1005200005D2FFE7FFE70098401C0090F5E702B016
:100530007047000010B588B000200690EFF31081DE
:1005400072B6079121490A6801239C0422430A607C
:100550001F490A681F4C22430A600A680F242406B8
:10056000A2430A601C490A681C0222430A601B4914
:1005700008601B4908600393FFF7EEFE1948016805
:10058000039AD3061943016062B617480590FFE746
:1005900016480068032109030840000B0490144822
:1005A00001210160059A049B9A4002901046019136
:1005B000FFF7AEFF01980104029A11600599049BB0
:1005C00099400846FFF7A4FFE2E7C0461410024036
:1005D00000040048010001001404004864010020E8
:1005E0006001002000E100E050C30000100400485A
:1005F00018040048040600080000002068070000F6
:0406000004010008E9
:0400000508000149A5
:00000001FF
