:020000040800F2
:100000006006002049010008510100085301000862
:1000100000000000000000000000000000000000E0
:100020000000000000000000000000005501000872
:1000300000000000000000005701000859010008FE
:100040005B0100085B0100085B0100085B01000820
:100050005B0100085B0100085B0100085B01000810
:100060005B0100085B0100085B0100085B01000800
:100070005B0100085B0100085B0100085B010008F0
:100080005B0100085B0100085B0100085B010008E0
:100090005B0100085B0100085B0100085B010008D0
:1000A0005B0100085B0100085B0100085B010008C0
:1000B0005B0100085B0100085B0100085B010008B0
:1000C00000F002F800F030F80CA030C8083824180E
:1000D0002D18671EA246AB4654465D46AC4201D180
:1000E00000F022F87E460F3EB6460FCC0126334282
:1000F00000D0FB1A3343A246AB461847D803000092
:10010000E80300000023002400250026103A01D354
:1001100078C1FBD8520700D330C100D50B607047BF
:100120001FB51FBD10B510BD00F0E3F81146FFF775
:10013000F7FF00F023F900F0FBF803B4FFF7F2FF3C
:1001400003BC00F001F9000007488047074800475A
:10015000FEE7FEE7FEE7FEE7FEE7FEE704480549A7
:10016000054A064B7047000057030008C10000080D
:100170006000002060060020600200206002002075
:10018000002203098B422CD3030A8B4211D3002394
:100190009C464EE003460B433CD4002243088B426E
:1001A00031D303098B421CD3030A8B4201D39446FB
:1001B0003FE0C3098B4201D3CB01C01A52418309EE
:1001C0008B4201D38B01C01A524143098B4201D3A8
:1001D0004B01C01A524103098B4201D30B01C01AD3
:1001E0005241C3088B4201D3CB00C01A524183084D
:1001F0008B4201D38B00C01A524143088B4201D37A
:100200004B00C01A5241411A00D2014652411046D9
:1002100070475DE0CA0F00D04942031000D340424E
:1002200053409C46002203098B422DD3030A8B4284
:1002300012D38901FC2212BA030A8B420CD3890122
:1002400092118B4208D3890192118B4204D3890108
:100250003AD0921100E08909C3098B4201D3CB0146
:10026000C01A524183098B4201D38B01C01A5241FB
:1002700043098B4201D34B01C01A524103098B42FF
:1002800001D30B01C01A5241C3088B4201D3CB00EA
:10029000C01A524183088B4201D38B00C01A5241CD
:1002A000D9D243088B4201D34B00C01A5241411AA4
:1002B00000D201465241104663465B1001D34042D2
:1002C000002B00D54942704763465B1000D3404283
:1002D00001B50549002802DC491C084000E0084639
:1002E000C046C04602BD00BFFFFFFF7F704770479A
:1002F0007047754600F024F8AE460500694653463F
:10030000C008C000854618B020B5FFF727FF60BCC5
:10031000B64600260027C0C5C0C5C0C5C0C5C0C5FB
:10032000C0C5C0C5C0C5403D490849008D4670479D
:1003300010B50446C046C0462046FFF7FEFE10BD7D
:10034000004870470000002001491820ABBEFEE7BE
:10035000260002007047704782B001900020009094
:10036000FFE700980199884205D2FFE7FFE7009870
:10037000401C0090F5E702B07047000010B58EB049
:1003800000200D900B9045490A6801239C042243EC
:100390000A6043490A68434C22430A6042490A689A
:1003A000424C22430A600A68FF242405A2430A60E3
:1003B0003F490A685B021A430A603E498A680A920A
:1003C0004A68099209680891079006900590049080
:1003D000FFE7002004900590069007900B903648A8
:1003E0000168012213031940036854032340C9180C
:1003F000090B036894032340DB0AC9180068D20381
:100400001040C00A0818001D0C90FFE70C98002847
:1004100014D0FFE70C9803210291FFF7B1FE0B9A6D
:10042000920004AB99500C99019008460299FFF78D
:10043000A7FE0C900B98401C0B90E7E7032003905D
:10044000FFE70398002828D4FFE703980B99884218
:100450001EDAFFE70398800004A90858800008A965
:100460000858134908600398002807D1FFE710488F
:1004700001680522D20111430160FFE70F48FFF731
:100480006BFF0B480E4901600E48FFF765FFFFE761
:10049000FFE70398401E0390D3E79AE71410024049
:1004A0000804004855550000000400485555040054
:1004B00014040048C80400081004004820A10700E4
:1004C0000000FFFF50C300003F02000006020000D2
:1004D0005B020000E4040008000000206006000049
:0404E000040100080B
:0400000508000149A5
:00000001FF
